:10C000000070002011C4000059C4000059C4000091
:10C0100059C4000059C4000059C4000000000000C9
:10C0200000000000000000000000000059C40000F3
:10C0300059C400000000000059C4000045FF000082
:10C04000C3E10000CDE10000D7E10000E1E1000024
:10C05000EBE10000F5E10000FFE1000009E2000073
:10C0600013E200001DE2000027E2000031E20000C0
:10C070003BE2000045E200004FE2000059E2000010
:10C0800063E2000059C4000059C4000059C4000014
:10C0900059C4000059C4000059C4000059C400002C
:10C0A00059C4000059C4000059C4000059C400001C
:10C0B00059C4000059C4000059C4000059C400000C
:10C0C00059C4000059C4000059C4000059C40000FC
:10C0D00059C4000059C4000059C4000059C40000EC
:10C0E00059C4000059C4000059C4000059C40000DC
:10C0F00059C4000059C4000059C4000059C40000CC
:10C1000059C4000059C4000059C4000059C40000BB
:10C1100059C4000059C4000059C4000059C40000AB
:10C1200059C4000059C400002108010059C400008E
:10C1300059C4000059C4000059C4000059C400008B
:10C1400059C4000059C4000059C4000059C400007B
:10C1500059C4000059C4000059C4000059C400006B
:10C1600059C4000059C4000059C4000059C400005B
:10C1700059C4000059C4000071F100007BF10000B7
:10C1800085F100008FF1000099F1000059C4000012
:10C1900059C40000A3F10000ADF1000059C4000033
:10C1A000B7F1000059C4000059C4000059C4000090
:10C1B000C1F10000CBF1000059C40000D5F100002E
:10C1C00059C4000059C4000059C4000059C40000FB
:10C1D00059C4000059C4000059C4000059C40000EB
:10C1E00059C4000059C4000059C4000059C40000DB
:10C1F00059C4000059C4000059C4000059C40000CB
:10C3F00059C4000059C4000059C40000FFFFFFFFEA
:10C40000FFFFFFFFFFFFFFFFFFFFFFFFFE7FFFFFBD
:10C4100072B64FF000014FF000024FF000034FF0F2
:10C4200000044FF000054FF000064FF00007B8463B
:10C43000B946BA46BB46BC460448854604488047D0
:10C440000448804762B604F011FAFEE7007000204D
:10C4500075C70000B1C70000FFF7FEBF53B94AB966
:10C46000002908BF00281CBF4FF0FF314FF0FF30FC
:10C4700000F07EB9ADF1080C6DE904CE00F006F8CD
:10C48000DDF804E0DDE9022304B070472DE9F04750
:10C49000089D04468E46002B4ED18A4294466DD9A3
:10C4A000B2FA82F757B1C7F1200EB94020FA0EFE5A
:10C4B00002FA07FC4EEA010E00FA07F44FEA1C49A3
:10C4C000210CBEFBF9F61FFA8CF809FB16EE41EAC7
:10C4D0000E4106FB08F38B420AD91CEB010106F161
:10C4E000FF3280F027818B4240F22481023E61447A
:10C4F000C91AA4B2B1FBF9F009FB101144EA0144D6
:10C5000000FB08F8A0450AD91CEB040400F1FF3336
:10C5100080F00E81A04540F20B810238644440EA6D
:10C520000640A4EB080400267DB1FC4000232C60EB
:10C530006B603146BDE8F0878B4209D9002D00F0D1
:10C540001481002685E8030030463146BDE8F087B7
:10C55000B3FA83F6002E40F090808B4202D38242E1
:10C5600000F2FD80841A61EB030101208E46002D4C
:10C57000EBD085E810403146BDE8F0871AB94FF09E
:10C58000010CBCFBF2FCBCFA8CF7A7BBA1EB0C03C3
:10C590004FEA1C421FFA8CF80126B3FBF2FE210C75
:10C5A00002FB1E3341EA034108FB0EF38B4208D91C
:10C5B0001CEB01010EF1FF3002D28B4200F2D18060
:10C5C0008646C91AA3B2B1FBF2F002FB101143EA8E
:10C5D000014408FB00F8A04508D91CEB040400F155
:10C5E000FF3302D2A04500F2B7801846A4EB08043E
:10C5F00040EA0E4098E7C7F1200301FA07F40CFA6D
:10C6000007FC20FA03FED9404FEA1C424EEA040E12
:10C61000B1FBF2F64FEA1E4302FB16111FFA8CF82B
:10C6200043EA014306FB08F1994200FA07F40AD9EC
:10C630001CEB030306F1FF3080F08C80994240F23E
:10C640008980023E63445B1A1FFA8EF1B3FBF2F05D
:10C6500002FB103341EA034100FB08F38B4208D987
:10C660001CEB010100F1FF3E70D28B426ED9023803
:10C670006144CB1A40EA06468FE7C6F1200722FA4A
:10C6800007F8B34001FA06F448EA030320FA07FC6E
:10C690004FEA134EF9404CEA040CB1FBFEF94FEAA5
:10C6A0001C440EFB19111FFA83F844EA014109FBEF
:10C6B00008F48C4202FA06F200FA06FA08D9591870
:10C6C00009F1FF3044D28C4242D9A9F10209194440
:10C6D000091B1FFA8CFCB1FBFEF00EFB10114CEA9B
:10C6E000014400FB08F8A04507D91C1900F1FF31EF
:10C6F0002AD2A04528D902381C4440EA0940A4EBBC
:10C700000804A0FB02894C45C446494616D313D001
:10C7100055B1BAEB0C0364EB010404FA07F7F340DC
:10C720001F43F4402F606C6000263146BDE8F0875F
:10C730001846F4E61646DBE6C245E9D2B8EB020C31
:10C7400069EB03010138E3E70846D6E7704690E756
:10C750008146BDE7064676E70238644446E7304640
:10C7600005E7AEF1020E61442BE72E462846ECE6C3
:10C77000704700BF4FF0E023D3F8882D42F47002D9
:10C78000C3F8882DD3F8342F22F08042C3F8342F19
:10C79000054B064A5A605A6842F220121A604FF658
:10C7A000FF729A60704700BF0020054020C528D95D
:10C7B000264B274A9A4208D013462448254A13F8A4
:10C7C000011B02F8011B9842F9D1234B234A9A42DC
:10C7D00008D013462048224A13F8011B02F8011B17
:10C7E0008342F9D11F4B204A9A4206D013460021BA
:10C7F0001C4A03F8011B9342FBD11C4B1C4A9A4272
:10C8000008D0134619481B4A13F8011B02F8011BF4
:10C810008342F9D1184B194A9A4212D010B4184CDD
:10C82000A40808D01946002351F8040B42F8040B61
:10C830000133A342F8D1134B104A1A605DF8044B40
:10C840007047104B0C4A1A60704700BF7C12010001
:10C85000A80B01000084FF1F7C1201007C12010064
:10C86000D48AFF1F1C030020000000207C1201005E
:10C870007C1201000000002000C000000080FF1FAB
:10C880000004000008ED00E070B584B006460D46D7
:10C890005D4B53F8204041238DF80C3042238DF836
:10C8A0000D3004A9002341F8083D04AB034413F8FC
:10C8B000040C01F039FC2B78029ADA400292226CC7
:10C8C00022F060025B0103F06003134323646B7882
:10C8D000002B08BF0123626C22F0FF021343636444
:10C8E000226C22F00C02AB789B0003F00C03134384
:10C8F0002364226C22F00302EB7803F0030313435A
:10C900002364D4F8902022F040022B799B0103F09D
:10C9100040031343C4F890306B79302200924FF4F7
:10C9200040520192394A926904A901EB860151F8FB
:10C93000101C22EA0102002E43D0012E4FD0334BAF
:10C940009A61AA79012100914FF4807101919B694C
:10C9500004A901EB860151F8101C23EA0103002E03
:10C9600039D0012E45D0294A9361D4F8903023F074
:10C970000403EA79002A14BF042200221343C4F8F6
:10C980009030D4F8902022F003022B7A03F00303B6
:10C990001343C4F89030D4F8943023F008036A7A33
:10C9A000002A14BF082200221343C4F8943036B979
:10C9B000AB7A1BBB154A536823F40023536004B0C1
:10C9C00070BD1B0103F03003134310498B61AA793A
:10C9D0008B6923F0010302F001021343C3E71B0339
:10C9E00003F44053134309498B61AA798B6923F4FB
:10C9F0008073120202F480721343B4E7034A53684F
:10CA000043F400235360DAE70C090100008004407E
:10CA100030B4134B53F8200053881478A3F5706298
:10CA200092B2052A0BD80F4A556825F4E0255560C7
:10CA300055681B0403F4E0232B435360152350F87F
:10CA4000212003F01F0322F05F021343002C14BFC8
:10CA500040220022134340F8213030BC704700BF11
:10CA60000C09010000800440034B53F8203053F8B8
:10CA70002100C0F3C01070470C090100044B53F8AB
:10CA80002030123153F82130C3F30B031380704769
:10CA90000C0901002DE9F04782B04F4B53F82040BC
:10CAA000D4F89430C3F38008D4F8947007F00307E7
:10CAB000D4F89060656CEDB2D4F8943043F0030381
:10CAC000C4F89430D4F8943043F00403C4F894309C
:10CAD000D4F8903023F04003C4F89030636C23F016
:10CAE000FF0343F00C0363640023C4F8B430C4F8BC
:10CAF000B830C4F8BC30C4F8C030C4F8C430C4F88E
:10CB0000C830C4F8CC3041228DF8042042228DF880
:10CB1000052002A941F8083DD4F840904FEA591A7F
:10CB200002AB184410F8040C01F0FEFA009B0AF066
:10CB3000030A23FA0AFA294A924512D9284A93424B
:10CB400008D9284A934245D9274A934294BF0323E0
:10CB5000002300E00123226C22F0600242EA43132A
:10CB60002364D4F8943043F08003C4F89430D4F8AC
:10CB7000943013F08003FAD1226C22F0600209F0A5
:10CB8000600949EA02022264D4F8942022F00402E7
:10CB9000B8F1000F18BF04231343C4F89430D4F83D
:10CBA000943023F003031F43C4F89470D4F89030FA
:10CBB00023F0400306F040061E43C4F89060002DA9
:10CBC00008BF0125636C23F0FF031D43656402B0B9
:10CBD000BDE8F0870223BEE70C09010040787D0123
:10CBE00081F0FA0203E1F50507C2EB0B074B5B6925
:10CBF000DBB2042B06D0802B06D0012B0CBF01200A
:10CC000004207047022070470320704700E007406F
:10CC1000044BD3F8003113F0807F1ABF024B186821
:10CC200000207047004006402000002010B584B06E
:10CC30000B4600293BD0444AD2F8002112F0007F75
:10CC40007DD1414AD2F8001121F40001C2F800114F
:10CC50004FF08061C2F8001100213C4A11600028A9
:10CC600070D05A7A120202F4E062197A01F00701D8
:10CC70000A433548C0F80421DA79120102F0300283
:10CC80009979C90001F008010A435979890001F036
:10CC900004010A43C0F808211A79012A29D0E2B117
:10CCA000022A32D01A68294B1A60294C3BE0002333
:10CCB0008DF804308DF80C3001228DF808208DF8A5
:10CCC00009208DF805208DF8063002238DF80730F5
:10CCD00004AB204A43F8102DADE71A7B002A14BF9D
:10CCE0004FF40002002242F001021749C1F800216E
:10CCF000D8E71A7B002A14BF4FF40002002242F04A
:10CD000001121149C1F80021CCE71A7B002A14BF97
:10CD10004FF403024FF4403242F001020A49C1F8D5
:10CD20000021BFE7013CFFF773FF18B9002CF9D1D0
:10CD3000032005E0002C14BF0020032000E00220A7
:10CD400004B010BD0020FBE700400640200000209A
:10CD500088E7300000127A00084BD3F8003213F055
:10CD6000807F09D0054BD3F8083203F00103002B74
:10CD7000034808BF0020704700207047004006406D
:10CD800000127A0010B582B00B46002938D02D4A27
:10CD9000D2F8002212F0007F4FD12A4AD2F80012B6
:10CDA00021F40001C2F800120021C2F8001200288C
:10CDB00046D09A78120202F4E062597801F0070135
:10CDC0000A432049C1F804221A7802F00102C1F88E
:10CDD000082259799A791B79002B14BF0323012368
:10CDE000002914BF042100210B43002A14BF4FF473
:10CDF000000200221343134AC2F80032642410E0F8
:10CE000000238DF8043001228DF805208DF80630BE
:10CE10008DF801208DF8022002AB03F8082DB6E74B
:10CE2000013CFFF799FF18B9002CF9D1032005E068
:10CE3000002C14BF0020032000E0022002B010BD2F
:10CE40000020FBE700400640054BD3F8003313F009
:10CE5000807F1DBF024BD3F8083302480020704783
:10CE600000400640006CDC0210B582B00B46002981
:10CE700032D0294AD2F8002312F0007F47D1264A47
:10CE8000D2F8001321F40001C2F800134FF08061C2
:10CE9000C2F8001300283DD09A78120202F4E06232
:10CEA000597801F007010A431B49C1F804231A7895
:10CEB00002F00302C1F808239A795B79002B14BFB2
:10CEC00001230923002A14BF4FF400020022134358
:10CED000C1F8003364240EE001238DF805300022F0
:10CEE0008DF806208DF801308DF8023002AB03F882
:10CEF000082DBEE7013CFFF7A7FF18B9002CF9D1B8
:10CF0000032005E0002C14BF0020032000E00220D5
:10CF100002B010BD0020FBE70040064008B50F4BF3
:10CF2000D3F8003613F0807F02D10023184608BDE5
:10CF3000FFF76EFE03460028F8D00849D1F808260E
:10CF4000C2F302220132B0FBF2F3D1F80826C2F399
:10CF50000442103203FB02F35B08E7E7004006409F
:10CF600010B584B00C4699B13D4BD3F8003613F0A0
:10CF7000007F72D13A4BD3F8002622F40002C3F8A6
:10CF800000264FF08062C3F80026A0B9002065E0BB
:10CF900000238DF804308DF80B3001228DF8082025
:10CFA0008DF809208DF8053007228DF806208DF8C0
:10CFB000073001ACD8E7FFF72BFE63791B0203F4BF
:10CFC000E063227902F0070213432549C1F80436D1
:10CFD00063781B0203F4E063A278120402F4F812EF
:10CFE0001343C1F808362378012B16D04BB1022B1E
:10CFF0001FD04FF47A74FFF791FF48BB34B3013C64
:10D00000F9E7E379002B14BF4FF40003002343F04A
:10D010000103134AC2F80036EBE7E379002B14BF93
:10D020004FF40003002343F001130D4AC2F8003609
:10D03000DFE7E379002B14BF4FF403034FF44033D1
:10D0400043F00103064AC2F80036D2E7032005E0A8
:10D05000002C14BF0020032000E0022004B010BD0B
:10D06000004006402DE9F04180460D468C780134A1
:10D070004E7806FB04460F7807FB0447CB78022B5B
:10D0800018D006D9032B18D0062B19D1FFF746FF6D
:10D0900003E0012B14D1FFF7BBFD0009B8F1020F2B
:10D0A00047D0B8F1030F78D0B8F1010F0AD00020B3
:10D0B000BDE8F081FFF750FEEFE7FFF7C5FEECE7B4
:10D0C0000020EAE7EA7802EB42015B4B53F821309B
:10D0D0001B0904FB03F4A04200F293800B4656495F
:10D0E00001EB83035B681B0906FB03F6B04200F209
:10D0F0008B8002EB420301EB83039B681B0907FB58
:10D1000003F7B84200F28380AB781B0403F470236A
:10D11000120602F0706213432A7802F00F021343E2
:10D120006A781201D2B21343444A53610020BDE829
:10D13000F081EA7802EB4201414B53F821301B09A0
:10D1400004FB03F4A04265D80B463D4901EB830381
:10D150005B681B0906FB03F6B0425ED802EB420394
:10D1600001EB83039B681B0907FB03F7B84257D801
:10D17000AB781B0403F47023120602F070621343B1
:10D180002A7802F00F0213436A781201D2B21343D5
:10D190002A4A93610020BDE8F081EB7803EB43015C
:10D1A000284A52F82120120904FB02F4A0423AD87E
:10D1B0000A46244901EB82025268120906FB02F674
:10D1C000B04233D803EB430201EB820292681209AA
:10D1D00007FB02F7B8422CD8AA78120402F4702296
:10D1E0001B0603F0706313432A7802F00F02134307
:10D1F0006A781201D2B21343104AD3610020BDE80D
:10D20000F0810120BDE8F0810120BDE8F08101201E
:10D21000BDE8F0810120BDE8F0810120BDE8F0818A
:10D220000120BDE8F0810120BDE8F0810120BDE8CA
:10D23000F0810120BDE8F081080A010000400640AD
:10D240005C0A0100B409010038B50546FFF7CEFCC1
:10D250002946FFF707FF044658B9E8780A2208492B
:10D26000013A0B69C3F30363984204D0002AF7D153
:10D270000324204638BD002A08BF0324F9E700BF75
:10D280000040064010B504461B4B1B69C3F3036303
:10D29000022B19D006D9032B19D0062B1AD1FFF770
:10D2A0003DFE03E0012B15D1FFF7B2FC124B1B69C9
:10D2B000C3F303430133B0FBF3F0012C0CD0D4B122
:10D2C000022C11D0002010BDFFF746FDEEE7FFF75E
:10D2D000BBFDEBE70020E9E7074B1B69C3F3031332
:10D2E0000133B0FBF3F010BD034B1B6903F00F03D8
:10D2F0000133B0FBF3F010BD0040064008B5104B01
:10D300001B6AC3F30363022B11D005D85BB1012B59
:10D3100013D1FFF77DFC08BD032B0BD0062B0CD1DE
:10D32000FFF7FCFD08BD0220FFF7ACFF08BDFFF7CB
:10D3300013FD08BDFFF788FD08BD002008BD00BF34
:10D340000040064008B541B1012933D00020024613
:10D3500010B1431E22FA03F008BD052818D00CD9DD
:10D3600006281ED0072852D1FFF7D8FD02462B4BC6
:10D37000D3F8040600F00700EAE7042847D1FFF7D6
:10D38000EBFC0246254BD3F8040200F00700DFE770
:10D39000FFF75AFD0246214BD3F8040300F00700C3
:10D3A000D6E7FFF735FC02461C4BD3F8040100F02A
:10D3B0000700CDE7052818D00CD906281ED007286D
:10D3C00028D1FFF7ABFD0246144BD3F80406C0F397
:10D3D0000220BDE704281DD1FFF7BEFC02460F4B1B
:10D3E000D3F80402C0F30220B2E7FFF72DFD024696
:10D3F0000A4BD3F80403C0F30220A9E7FFF708FCA7
:10D400000246064BD3F80401C0F30220A0E7002037
:10D4100002469DE7002002469AE700BF0040064012
:10D4200008B5114B1B69C3F30113012B0BD02BB1B2
:10D43000022B11D0032B12D0002008BD00210620A2
:10D44000FFF780FF08BD084B186900F002000028B4
:10D4500018BF4FF4FA4008BD044B186808BD0021FE
:10D460000520FFF76FFF08BD00800440000000208A
:10D47000114B1B69C3F38103022B07D0032B0ED082
:10D48000002B0CBF4FF4FA30002070470A4B18698C
:10D4900000F00200002818BF4FF4FA407047064B16
:10D4A000186910F0020006D0186900F00100002889
:10D4B00018BF4FF47A7070470080044008B5294BBC
:10D4C0005B6813F4006F4AD0264B5B68C3F3031309
:10D4D000072B35D00AD90A2B3ED017D8082B33D0CA
:10D4E000092B1AD10120FFF7CDFE17E0022B1DD02A
:10D4F00008D9042B1FD0062B0FD101210520FFF7DF
:10D5000021FF0BE04BB9FFF7F9FE07E00C2B20D011
:10D510000E2B02D1FFF784FF00E00020114B5B6867
:10D52000C3F302230133B0FBF3F008BD0121062051
:10D53000FFF708FFF2E701210420FFF703FFEDE703
:10D540000020FFF79FFEE9E701210720FFF7FAFE21
:10D55000E4E7FFF78DFFE1E74FF4FA30DEE7002064
:10D5600008BD00BF0080044010B50C461C286FD0D9
:10D5700022D8182855D010D816283ED047D81528BC
:10D5800040F0A7805F4BDB68C3F30163022B00F21E
:10D59000AB805D4A52F8233005E01A284AD04DD8B6
:10D5A000FFF78CFF03460020002B00F09580002C35
:10D5B00000F0A680236010BD20286FD010D81E2850
:10D5C00058D060D8514B9B78DB0940F097804D4B89
:10D5D0001B6903F00203002B18BF4FF4FA43E2E784
:10D5E00022286DD063D3232873D1464B1B6C13F0D4
:10D5F00001034DD14FF48070D9E7424BDB68C3F390
:10D600008163022B72D8404A52F82330CBE73D4B5E
:10D61000DB68C3F30173022B6AD83B4A52F823300C
:10D62000C1E7384BDB689B0F022B63D8364A52F8B0
:10D630002330B8E7FFF7F4FE0346B4E7334B9B789B
:10D64000DB0901D00023AEE7FFF712FF0346AAE78C
:10D650002E4B9B78DB094FD12A4B1B6913F0020339
:10D66000A1D0284B1B6903F00103002B18BF4FF416
:10D670007A7398E7254B9B78DB09002B14BF0023B6
:10D680004FF4FA338FE71F4B1B6CC3F3001343B304
:10D690000120FFF7F7FD0346002085E7194B1B6CBF
:10D6A000C3F3C003002BF3D14FF480707FE7154B19
:10D6B0001B6CC3F38003002BEAD14FF4807076E734
:10D6C000104B1B6CC3F34003002BE1D14FF480706F
:10D6D0006DE70420002367E7042818BF4FF480702B
:10D6E00065E74FF4807062E700235CE700235AE7A8
:10D6F000002358E7002356E7002354E7002352E7AE
:10D7000010BD00BF008004400400002000D007408E
:10D7100030B583B0002301932F4B33F810309B00BA
:10D7200003F1804303F5CA231D68C5F3C0051C68D7
:10D7300004F00704AC421FD31A6812F0804F1BD0CC
:10D740001B68C3F30263022B19D008D9032B1BD02B
:10D75000062B1ED10720FFF7F5FD019005E0012BF8
:10D7600017D10620FFF7EEFD01900134019BB3FBBA
:10D77000F4F405FB04440194019803B030BD042087
:10D78000FFF7E0FD0190F0E70520FFF7DBFD0190DA
:10D79000EBE73D2812D009D93E2815D03F2819D1F2
:10D7A00001A91820FFF7E0FE0024DEE73C2811D194
:10D7B00001A91520FFF7D8FE0024D6E701A91620FD
:10D7C000FFF7D2FE0024D0E701A91720FFF7CCFE17
:10D7D0000024CAE70024C8E714090100F0B5A5B089
:10D7E00028B304460646002800F0FF80C54B1B699D
:10D7F000C3F30363032B00F0C680FFF725FB00286B
:10D8000000F0B88003238DF8073000228DF8062041
:10D8100001228DF8052024A800F88C3DFFF714FDA7
:10D820000546002800F0AF80284625B0F0BD012352
:10D830008DF80B3000228DF80C208DF80D308DF80E
:10D840000E208DF808308DF809308DF80A308DF8EB
:10D8500016308DF814308DF815208DF80F208DF8C6
:10D8600010308DF811308DF838300D928DF825304C
:10D87000A54906918DF81C208DF824208DF81D30C7
:10D880008DF81E2002208DF81F008DF820308DF8B5
:10D8900021308DF830308DF828208DF82F208DF82C
:10D8A00029200C218DF82A108DF82B208DF82C3092
:10D8B0008DF82D308DF83D3003218DF83C108DF81A
:10D8C0004B308DF841108DF840208DF83F308DF8A9
:10D8D0003E308DF845008DF844308DF843208DF8AA
:10D8E000421006208DF849008DF848208DF8473009
:10D8F0008DF8461085492291202121918DF84C30D8
:10D900008DF84D208DF84E208DF84F208DF8503039
:10D910008DF854308DF853308DF852208DF8512009
:10D920008DF878308DF879308DF87A308DF87B303D
:10D930008DF87C308DF87D308DF883308DF858303F
:10D940001792189219921A921B921C921D928DF89E
:10D950007E308DF87F308DF880208DF881208DF815
:10D9600082208DF88C308DF88D308DF88E2002AEAF
:10D9700034463BE700210120FFF776FA05460028F0
:10D980007FF452AF3EE73146E078FFF7FBF90546FA
:10D99000002800F0C380FFF729F9022800F0F88082
:10D9A000032800F0F880012800F0D280002D7FF4D9
:10D9B0003BAF0022564B1A6094F8303013B1E26A44
:10D9C000534B1A6094F8353053B14E490A6A22F02D
:10D9D000706294F834301B0603F0706313430B62DB
:10D9E00094F84330002B40F0348194F84430E3B194
:10D9F00094F8455094F8463094F8472045494868D3
:10DA000020F400604860496821F47F61002D14BF54
:10DA10004FF4006000201B01DBB2120202F4E0624E
:10DA200013430B4303433B4A536094F84830DBB144
:10DA300094F84A3094F849203649096921F03F01A9
:10DA400094F84C00014394F84B00002814BF0220C6
:10DA500000209B0003F00C030B43120102F0300284
:10DA6000134303432B4A136194F87030002B37D0D3
:10DA7000284B196C21F0010194F871200A431A64B3
:10DA80001B6C23F0020394F87220002A14BF0222B8
:10DA9000002213431F4A1364136C23F0040394F809
:10DAA0007320002A14BF042200221343194A13646E
:10DAB000136C23F0080394F87420002A14BF082282
:10DAC00000221343134A1364136C23F0100394F8D9
:10DAD0007520002A14BF1022002213430D4A13643C
:10DAE00094F85030002B00F0FE800B4B626D1A60F2
:10DAF000A26D5A60E26D9A6004F160000121054D4B
:10DB0000CCE000BF0040064000127A000084FF1FF6
:10DB100000000020008004400400002004F11001F7
:10DB2000607FFFF783F8054600287FF434AF04F1E7
:10DB3000200194F82800FFF713FA0546FFF756F87E
:10DB4000022825D0032826D0012801D0002601E094
:10DB500004F13606002D7FF429AFF378032B1DD096
:10DB60008DF80730B3788DF8063073788DF805306E
:10DB7000337824A800F88C3DFFF766FB05460028A3
:10DB80007FF414AFE11DA07BFFF76EF905460DE7AA
:10DB900004F13A06DEE704F13E06DBE794F82830AC
:10DBA0000BBB637F93BBE378002B42D10125002D93
:10DBB0007FF4FCAEE11DA07BFFF756F90546002877
:10DBC0007FF4F4AEF3788DF80730B3788DF8063033
:10DBD00073788DF80530337824A800F88C3DFFF772
:10DBE00033FB0546E2E606238DF8073002238DF865
:10DBF000063001238DF8053024A800F88C3DFFF78E
:10DC000023FB0546637F7BB10128D0D101238DF82A
:10DC1000073000228DF806208DF8053024A800F882
:10DC20008C3DFFF711FB0546E378002BBFD0012D9B
:10DC3000BDD102238DF8073000238DF806308DF812
:10DC4000053024A8012300F88C3DFFF7FDFA0546B6
:10DC5000ADE704F136010120FFF704FA054600287C
:10DC60007FF4E2AD04F13A010220FFF7FBF905462B
:10DC700000287FF4D9AD04F13E010320FFF7F2F94B
:10DC8000054600287FF4D0ADAFE626F040761306B7
:10DC900003F040733343EB600131C9B250F8042BF9
:10DCA000EE684B1EDBB2012B09D0002BEDD0022B0E
:10DCB0000CD0032B11D0EE600329EDD913E026F030
:10DCC0004066930603F040633343E4E726F0405692
:10DCD000130703F040533343DDE726F0404646EA9E
:10DCE0008272404BDA6094F87630EBB13D4A936E25
:10DCF00000209066516821F4805194F878301B031D
:10DD000003F480530B435360906694F877305BB113
:10DD100094F879305B0003F00E0394F87A2042F017
:10DD2000805213432F4A936614F17C0F38D0D4F8F5
:10DD30008030002B34D0E36F93B300212A482B4D61
:10DD400001EB8102D4F880309B5C30F813309B00EB
:10DD500003F1804303F5CA231E6826F080461E6047
:10DD6000D4F880309F189E5CBB781B0603F0E063FC
:10DD7000FA78D20002F0080213433A7902F007025F
:10DD800013437A78002A14BF4FF0804200221343D5
:10DD900030F8162045F822300131E36F9942CFD395
:10DDA00094F88430DBB112498B7803F07F0394F848
:10DDB000852082F0010243EAC213DBB28B7094F932
:10DDC0008630002BBCBF20335BB209490A7903F0CF
:10DDD0001F0302F0E00213430B71002524E5002528
:10DDE00022E500BF008004401409010000500640F5
:10DDF00000D0074070B504460D46112807D92328E6
:10DE000040F29A804D2840F29A80042070BD082884
:10DE10005CD011D90D2870D02AD80A285FD059D3E8
:10DE20000B2863D00C2840F0848000210520FFF7E8
:10DE300089FA0346002016E0032833D00BD90528C1
:10DE40003AD034D306283CD0072872D1FFF766F8C1
:10DE50000346002007E0012818D01DD80020FFF756
:10DE600011FA03460020002D00F0D0802B6070BD19
:10DE70000F2850D048D3102854D0112859D101214F
:10DE80000720FFF75FFA03460020ECE70120FFF7C9
:10DE9000F9F903460020E6E70220FFF7F3F903460D
:10DEA0000020E0E7FFF70AFB03460020DBE7FEF770
:10DEB00053FF03460020D6E7FEF7C6FF03460020C7
:10DEC000D1E7FEF7A5FE03460020CCE7504B1B68C8
:10DED0000020C8E7FFF712FA03460020C3E700213D
:10DEE0000420FFF72FFA03460020BCE7012104209D
:10DEF000FFF728FA03460020B5E701210520FFF7C8
:10DF000021FA03460020AEE700210620FFF71AFAA7
:10DF100003460020A7E701210620FFF713FA034676
:10DF20000020A0E700210720FFF70CFA034600209D
:10DF300099E70023042096E7FFF716FB70BD24281D
:10DF400005D804200023002D60D02B6070BDA0F107
:10DF50003303DBB21A2B07D82E4A22FA03F313F04D
:10DF6000010F18BF0420EDD12B4B33F814202B4B9D
:10DF700053F8223013F0804F37D14FF48070E1E72F
:10DF80000120FFF77FF9034600283AD100234FF420
:10DF90008070D8E70020FFF775F903460028F5D018
:10DFA0002FE00220FFF76EF903460028EED028E0AC
:10DFB00016F0080F06D116F0100F0BD100234FF406
:10DFC0008070C0E700212046FFF7A2FB034616F051
:10DFD000100F04D001212046FFF79AFB0346002BC7
:10DFE00014BF00204FF48070ADE70D4B1E5D16F09E
:10DFF000200FC5D116F0400FCCD116F0800FD0D134
:10E00000002316F0180FD3D100209CE770BD00BF8D
:10E0100000000020412100041409010000500640C6
:10E02000B00A010010B4054C20602171A260237376
:10E03000637300205DF8044B704700BF10000020A0
:10E04000F0B583B007460E468DF804008DF8051034
:10E0500001F000F9334B1C7B5C7301238DF8063013
:10E06000002C4AD000242F4D04E00134E4B22B7B75
:10E07000A34242D9AB6853F82430002BF5D01A796B
:10E08000022AF2D01A68996801A890470028ECD0BB
:10E090006C73002EE9D140F2031500238DF8063091
:10E0A000A400204E20E00134E4B23B7BA34212D90D
:10E0B000BB6853F82430002BF5D01A79012AF2D02E
:10E0C0001A68996801A890470028ECD07C73002E4C
:10E0D000E9D14FF4827501F0AFF8284603B0F0BDE6
:10E0E000043C14F1040FF6D0B3681B59002BF7D091
:10E0F0001A68996801A89047F2E70A4D2B6853F80F
:10E100002700FFF76BFB6F7105460028C5D102237E
:10E110008DF80630034B1B7B002BDCD00024014F15
:10E12000C6E700BF1000002008B5FFF763FE08BD7A
:10E1300008B5084B1B6853F8203000F00F00064A62
:10E140001077D07723B15A6812B1197B986890473D
:10E1500008BD00BF240000200080004038B50546FF
:10E1600000F00F0400222146094800F025F8094B71
:10E170001B6853F8253053B1054A1477D477947748
:10E1800001221A735A6812B1197B9868904738BDFA
:10E19000008000402400002008B5002200F00F019C
:10E1A000024800F009F8002008BD00BF00800040D0
:10E1B00000487047008000400AB981767047C176F8
:10E1C000704708B50020FFF7B3FF08BD08B5012070
:10E1D000FFF7AEFF08BD08B50220FFF7A9FF08BD95
:10E1E00008B50320FFF7A4FF08BD08B50420FFF71A
:10E1F0009FFF08BD08B50520FFF79AFF08BD08B5C9
:10E200000620FFF795FF08BD08B50720FFF790FF30
:10E2100008BD08B50820FFF78BFF08BD08B5092029
:10E22000FFF786FF08BD08B50A20FFF781FF08BD8C
:10E2300008B50B20FFF77CFF08BD08B50C20FFF7E1
:10E2400077FF08BD08B50D20FFF772FF08BD08B5C0
:10E250000E20FFF76DFF08BD08B50F20FFF768FF20
:10E2600008BD38B50020FFF7A3FFC56A002404E00D
:10E270006D080134E4B2102C06D015F0010FF7D070
:10E280002046FFF76BFFF3E738BD00002DE9F041B2
:10E2900086B00C4616469846244B53F82050244B23
:10E2A00053F82070384600F03BFC844205D34FF40D
:10E2B0004073184606B0BDE8F08105EBC4056B79E4
:10E2C0000BB10223F5E71F2C04D804F01F02012331
:10E2D00093403B6302236B719DF83430AB71F37A4A
:10E2E000EB717368049333788DF80C30337A8DF8C2
:10E2F0001430737A8DF81530B37A8DF81630F37ABE
:10E300008BB11C230293002301930C9B0093434683
:10E3100002AA2146384600F0C9FD03460028C8D0AD
:10E3200000226A71C5E70C230293ECE72800002065
:10E33000040B010070B50646284B53F8204094F8B2
:10E3400011316BB36379DBB2032B15D0256894F8D8
:10E350001001FFF721FF2B6813F4001F02D16A6838
:10E36000920C6A60C3F3034385F84830AB681BBA6C
:10E37000AB60EB681BBAEB60002323606379DBB210
:10E38000032B08D000236371D4F800511DB194F819
:10E390001131012B17D0A3790BB16379CBB170BDCB
:10E3A0000F4B53F8205000220521284600F04EFC68
:10E3B00000220621284600F049FC002207212846B9
:10E3C00000F044FCD8E72346002208213046A84745
:10E3D000E1E7201D01F0BEFDE1E700BF28000020BD
:10E3E000040B010038B50C460A4B53F820500022AC
:10E3F000094B53F8200000F029FCE1006C18A379C8
:10E4000013B90023637138BD081D284401F0A2FD33
:10E41000F7E700BF28000020040B01002DE9F047BA
:10E42000814688461746AC4B53F820402368002BA2
:10E4300005DB204600F029FC204600F09CFB6268CA
:10E440007B7A5B0303F4005322F4005213436360AE
:10E45000204600F07BFB204600F017FC204600F031
:10E4600097FB9E4B13F8093043B3236823F40063F2
:10E470003A7A002A40F027812360226D22F0004280
:10E48000002313432365D4F8003C23F41F43C4F84E
:10E49000003C23683A7AC3F3C0239A4203D0012296
:10E4A0001046BDE8F087636B23F48053002A14BF45
:10E4B0004FF4805200221343636303E03B7A002B46
:10E4C00040F0FB80BB79022B03D0236843F4003378
:10E4D00023607B79002B40F0B38097F83430012B18
:10E4E00000F0B78097F834301BB9236823F4004359
:10E4F0002360F979204600F0A3FC3968204600F03B
:10E50000E9FD02460028CBD1236813F4006F00F028
:10E51000A980FB6838697E69BD69FA69216D01F0DF
:10E5200000412165216D9B029BB2400100F478708F
:10E53000034306F01F063343694800EA45552B4361
:10E54000120402F4F81213430B4323653B6A786A02
:10E55000BE6AFD6A3A6BD4F804CC62490CEA010148
:10E56000C4F8041CD4F8041C9B0203F4F8434001D3
:10E57000C0B2034306F0070633435B4800EA055583
:10E580002B43120402F4E02213430B43C4F8043C6F
:10E59000B979204600F009FCBB79032B02D0204654
:10E5A00000F066FB514B13F9090010F1800F01D008
:10E5B00000F036FE4E4B13F9090000F031FE4D4BD2
:10E5C00013F9090000F02CFE4B4B13F9090010F170
:10E5D000800F01D000F024FE474B4B4493F9030019
:10E5E00010F1800F01D000F01BFE08F1040A544620
:10E5F00000252E463146204601F0BFFC0246002889
:10E600004FD1A67044F8046C08EBC5035E71013568
:10E610000834202DEED197F8343088F8113197F86E
:10E62000353088F810310023C8F80031C8F80431BB
:10E63000C8F80831C8F80C31304B43F829802FE76F
:10E640003979204600F0D8FA024600283FF445AF59
:10E6500026E7236813F0005F31D0236843F40043BA
:10E6600023603FE7FB6838697D69BE69FA696168C4
:10E6700021F007010904090C6160616803F00703D8
:10E6800043EA06632D0405F4E0252B43C00400F49F
:10E6900060100343920502F4400213430B4363608E
:10E6A00076E775B10024504601F071FC01340AF19F
:10E6B000080AAC42F7D10122F2E60122F0E601227B
:10E6C000EEE60122ECE643F400632360226D22F0C3
:10E6D00000424FF00043D4E6040B0100000B0100A0
:10E6E0000000E07F188308C00000F03F200B01000D
:10E6F000140B0100100B0100180B01002800002072
:10E70000F0B587B00E4615461F46134B53F8204010
:10E71000204600F07EFB18B14FF4407007B0F0BD0A
:10E720006B6804932B788DF80C30AB7A8DF816302B
:10E730002B7A8DF814306B7A8DF8153006AA0823E1
:10E7400042F8103D0023019300933B46314620469A
:10E7500000F0ACFBE2E700BF040B01002DE9F04143
:10E7600082B004460E4617469846104B53F8205088
:10E77000284600F04EFB28B14FF44073184602B013
:10E78000BDE8F08100230193089B009343463A467D
:10E7900031462046FFF77AFD03460028EED10122DC
:10E7A0003146284600F052FA0346E7E7040B010021
:10E7B00010B5074B53F82040064B53F82020D2F8F1
:10E7C00008310BB10A219847204600F0B9FA10BD74
:10E7D000040B0100280000202DE9F04395B0904B78
:10E7E00053F82050AB6A2A6B134003F00103002456
:10E7F0005BB90134202C25D0AB6A2A6B134004F09E
:10E800001F02D34003F00103F2E7DBB10646854B5C
:10E8100053F820702B6813F0005F01D0072C14D937
:10E820004FEAC40907EB090898F80530DBB2012B61
:10E8300000F08F8007EBC4035B79DBB2022B55D06D
:10E840001F2C1ED915B0BDE8F083052C0FD0062C67
:10E8500073D0072CEED180232B63D7F80081B8F159
:10E86000000F08D03B4600220321C04703E07B791C
:10E87000DBB2012B20D007EBC4035B79DBB2022BA8
:10E8800034D0AB6A296B04F01F020B40D34013F065
:10E89000010FD7D02B6813F0005F00F0B280072C77
:10E8A00000F2AF807B79002BCCD11F2CCAD801237A
:10E8B00003FA02F22A63C5E73968284600F04AFAEB
:10E8C00020232B6300237B71D7F80081B8F1000F60
:10E8D00004D03B46002201213046C0477B7943B338
:10E8E00007EBC4035B79DBB2022BCAD107EBC40888
:10E8F00098F80730002B6CD11F2C04D804F01F02AD
:10E90000012393402B63002388F80530D7F800914A
:10E91000B9F1000F04D03B46224604213046C847D7
:10E9200098F80530002B8BD121463046FFF75AFD71
:10E9300086E73046FFF7FEFCD2E740232B63D7F88B
:10E940000081B8F1000F96D03B4600220221C0475B
:10E9500091E72146284600F071FB57F83420214604
:10E96000284600F070FB1F2C04D804F01F0201237E
:10E9700093402B632B6813F0005F05D057F80930E4
:10E98000DB7813F00F0F17D0AB68002388F8053041
:10E99000D7F80091B9F1000F04D03B462246002180
:10E9A0003046C84798F80530002B7FF443AF214626
:10E9B0003046FFF717FD3DE72146284600F05DFA97
:10E9C000036823F070630360036843F080630360AF
:10E9D000DBE72146284600F031FB01AA2146284604
:10E9E00000F031FBAB689DF8073003F00F03042BF8
:10E9F00089D11F2C87D804F01F02012393402B6379
:10EA000081E707EBC4077B79002B7FF41BAF1F2C3A
:10EA10003FF618AF012303FA02F22A6312E700BFA0
:10EA2000040B01002800002010B5074B53F82040CC
:10EA3000064B53F82020D2F808310BB10A21984731
:10EA4000204600F071F910BD040B010028000020E1
:10EA5000F8B5184B53F82040236813F4804F28D0A2
:10EA60000546154B53F82060D4F8083B13F4003FDB
:10EA70000CD0D4F8083B43F40033C4F8083BD6F874
:10EA800000711FB1334600220521B847D4F8083B76
:10EA900013F4803F0DD0D4F8083B43F48033C4F81E
:10EAA000083BD6F8004124B133460022062128460F
:10EAB000A047F8BD040B010028000020074B53F8C5
:10EAC000203003EBC1014B7933B14B79DBB2032B1F
:10EAD0000CBF012002207047002070472800002052
:10EAE00008281BD90C2812D006D80A280BD00CD81D
:10EAF000092812D10C2070470E280CD009D30F28FA
:10EB00000BD1402070471020704714207047182008
:10EB10007047202070473020704700207047000069
:10EB20000346084A904209D002F58052904207D02D
:10EB30000020054A934208BF102070472020F8E7C4
:10EB4000102070470040024000B00240036813F4F8
:10EB5000801F0FD0036823F000430360036823F095
:10EB600080430360036823F080530360036813F05D
:10EB7000006FFBD170470368002B07DB036843F08D
:10EB800000430360036813F4801FFBD0704700004C
:10EB900070B50446036843F000730360236813F004
:10EBA000007FFBD1236843F4805323602046FFF7A6
:10EBB000B7FF04F18001860007D00B4601EB860108
:10EBC000002543F8045B8B42FBD104F5086230B1A9
:10EBD00013463244002143F8041B9A42FBD14FF004
:10EBE000FF3323616361A3610022A2622363014BAF
:10EBF000236270BD06003B0038B504460D46FFF7A2
:10EC00008FFF0146236803F40063002B14BF01202B
:10EC100000201AD1236843F000532360626B2B0657
:10EC200003F0706322F07062134363634FF0FF33AD
:10EC3000A36489B249B100236FF0604503F50872FF
:10EC400044F8225001338B42F8D138BD1F2909D82E
:10EC500001F01F01012303FA01F12AB9836A23EAB3
:10EC60000101816200207047836A19438162F9E7DC
:10EC7000036823F080530360036823F0804303603C
:10EC8000036813F0807FFBD1704710B4036843F032
:10EC900080430360036843F0805303600368002BE4
:10ECA00015DB012400238360036813F4006F14D084
:10ECB000036813F0807F08BF40F2D92118D1826821
:10ECC000036813F0807F13D18A42F8D910E00368FB
:10ECD00023F0004303600024E4E7036813F0807F1F
:10ECE00006D18268036813F0807F01D1B32AF8D976
:10ECF000036813F0807F0BD1816A0268036843F0D8
:10ED000000730360036813F0007FFBD1816202602F
:10ED10003CB9036843F000430360036813F4801FA9
:10ED2000FBD05DF8044B7047026A034B134013B1EC
:10ED3000024B0362036A704706003B00020030008A
:10ED4000026A034B134013B1014B0362036A70471D
:10ED500004000B00F8B507460E4600F1880401F1E7
:10ED60000805D0F88000C0F30340FFF7B9FE86F82D
:10ED70004800D7F88030336013F4001F10D0D7F864
:10ED8000843073600646002348B1990854F8212066
:10ED900012BA45F821200433B342F6D3F8BDF8BDCA
:10EDA000D7F884309B0C7360ECE708B5022923D0B8
:10EDB00008D8A1B1012904D1436843F00803436096
:10EDC00008BD08BD032907D0042904D1036843F016
:10EDD0000043036008BD08BDFFF757FF08BD036887
:10EDE00023F400030360436823F00803436043688F
:10EDF00023F48053436008BD436843F48053436069
:10EE0000436823F008034360036823F4003303607E
:10EE100008BD036803F07F038B420DD3036813F032
:10EE2000005F0BD0406BC0F30360400007308142AD
:10EE30008CBF0020012070470120704700207047E0
:10EE4000036813F4006F07D0D0F8003C23F440337C
:10EE500043EA0141C0F8001C7047036813F4006FD7
:10EE600009D0D0F8000CC0F301400330012303FAAD
:10EE700000F0C0B270470820FBE738B504460D46E5
:10EE8000FFF7EBFF0830C0B24FF40073B3FBF0F3B1
:10EE9000DBB2B5FBF3F203FB12538008D20100FB97
:10EEA0000320203004EB800038BD00002DE9F0473E
:10EEB00007468A4614469846089D9DF82490FFF719
:10EEC000DCFF3B6803F07F039A4500F29A80064618
:10EED0003B6813F0005F40F0A1803B6813F4006FC3
:10EEE00007D0A37B2BB1D7F8003C43F00043C7F811
:10EEF000003CD4F808A05FFA8AF3402B9ABF4D4A31
:10EF0000D05CFF20074665B3FFF7EAFD3AF0030344
:10EF10000DD0002399088A00083255F8211009BA4B
:10EF2000B1500433A26822F003029A42F2D806F1EB
:10EF30000801A26893420AD21D4483F0030215F827
:10EF400001CB01F802C00133A2689A42F5D8054608
:10EF5000824206D282F00303607BC8540132AA4287
:10EF6000F8D10023336073602379012B32D0002362
:10EF700022796AB9736823F0FF5323F4E0137360B6
:10EF800072682D4B03EA884848EA02027260002347
:10EF90003F0407F470271F4323680F2B2ED01C2B30
:10EFA00024D0B9F1000F01D047F4801727F0706723
:10EFB000227BF2B11B0603F0706343F000431F4352
:10EFC000A37B0BB147F0804733681F4337600020B5
:10EFD000BDE8F087736803F060437360726828F0DF
:10EFE0006043134373604FF40013C1E747F4801785
:10EFF000DCE71B0603F070631F43E1E70020BDE878
:10F00000F0873B6813F0005F04D07B6B4FF44070D7
:10F01000BDE8F0874FF44070BDE8F0877B6BC3F329
:10F0200003635B0007339A453FF657AF4FF44070D8
:10F03000BDE8F087240B01000000FC1F08B5FFF7B6
:10F040001CFF036808BD2DE9F04180461446FFF718
:10F0500014FF054604F108070068C0F30340FFF7FA
:10F060003FFD06464046FFF7F8FE864229D884F861
:10F0700048602B68236013F4001F27D06B6863601F
:10F0800036F0030008BF00230BD0002399088A0044
:10F090000832AA5812BA47F821200433DBB283425F
:10F0A000F4D39E420BD9D91D214483F003020832C8
:10F0B000AA5C01F8012F0133DBB29E42F5D1BDE815
:10F0C000F0814046FFF7C9FE0646D0E76B689B0C0F
:10F0D0006360D5E72DE9F84306460F46FFF7BDFE0E
:10F0E00004467D1E29463046FFF7C7FE20440830FF
:10F0F00006F52073984203D94FF44070BDE8F883B9
:10F10000A0463046FFF70CFD874206D94FF4407009
:10F11000BDE8F8830020BDE8F883336823F07F035F
:10F1200005F07F051D433560316811F000511CD199
:10F13000002FEFD000252C4608F108093046FFF7D4
:10F140009CFE04604460B8F1000F06D000F1080393
:10F15000484403F8014B9842FBD10135EDB22946F2
:10F16000AF42EBD80020BDE8F8830020BDE8F8836B
:10F1700008B50020FFF71CFB08BD08B50020FFF70D
:10F1800053FC08BD08B50020FFF762FC08BD08B5B8
:10F190000020FFF721FB08BD08B50020FFF71CFB8E
:10F1A00008BD08B50120FFF703FB08BD08B5012025
:10F1B000FFF73AFC08BD08B50120FFF70DFB08BDBD
:10F1C00008B50220FFF7F4FA08BD08B50220FFF7E2
:10F1D0002BFC08BD08B50220FFF7FEFA08BD0000B1
:10F1E00010B40B4B0B4C9C420DD02AB100F1100314
:10F1F000084C54F8233013601030064B43F82010AD
:10F200005DF8044B7047044B044C9C42F8D1ECE78A
:10F2100000C000000080FF1F7C120100A80B01004D
:10F22000420900F01F00012303FA00F0014B43F8EC
:10F230002200704700E100E0054B1B68002B04DD55
:10F24000013B034A1360002B00DD704762B6FCE708
:10F250003400002072B6024A13680133136070470D
:10F260003400002000B583B0022808D0032810D055
:10F2700001280CD001A90B20FEF756FF03E01A204D
:10F2800001A9FEF751FF019803B05DF804FB1C20B3
:10F29000F6E74920F4E700002DE9F04F83B00C4673
:10F2A0008F68CE784D7991F806A0002E75D0BFB248
:10F2B000DFF8AC81404600F0FBF8D8F8003023F4CA
:10F2C000C0732278002A14BF4FF4807200221343C7
:10F2D000C8F80030D8F8003023F0C0036278002A64
:10F2E00014BF402200221343C8F80030D8F8002091
:10F2F00022F08402A378002B14BF042300231A43B6
:10F300004346C8F80020D8F8002022F08202760098
:10F3100006F002061643C8F80060D8F8042022F070
:10F320007802ED0005F078051543C8F80450D8F8C8
:10F33000042022F00402BAF1000F14BF04230023BA
:10F340001A43C8F80420D8F8041021F003012279E8
:10F3500002F003020A43C8F80420D8F80820120C6F
:10F3600012041743C8F80870D8F8001021F0B00153
:10F37000627B120102F030020A43C8F80020D8F87C
:10F38000001021F08801A27BD20002F008020A439B
:10F39000C8F8002003B0BDE8F08F91F80CB001462A
:10F3A0002079FFF75FFFBBF1010F01D0BFB27FE70C
:10F3B0002A4A0023DFF8ACA04FF0000BE0FB07ABBC
:10F3C00050465946FDF74AF802460B46CDE9002360
:10F3D000002908BFB0F1011F36D30127BA46FDB29C
:10F3E000A7F12002C7F120030AFA02F92AFA03F36F
:10F3F00049EA03090AFA07F85FEA59014FEA3800B7
:10F4000042464B46DDE900BC1BEB000B4CEB010C0C
:10F4100058466146FDF722F8002908BFB0F1011FE8
:10F4200015D30135EDB20137112FD8D14FF6FF7743
:10F4300035B1013DEDB24FF0000A39E70027F7E79B
:10F440004FF0010A002533E7DDE90001002550EA0D
:10F450000103F3D0013887B2EAE700BF40420F0052
:10F460000000044020A1070010B51446FFF714FF68
:10F4700034B1044A136823F0810343F0010313609D
:10F4800010BD00BF00000440034B1A6842F0800228
:10F490001A601B68704700BF00000440034A1368ED
:10F4A00023F0810343F00103136070470000044020
:10F4B000036823F0810303600023036043608360DB
:10F4C0007047000038B5144B53F82040134B53F8E5
:10F4D0002050EB8D9BB2022B16D000221049204603
:10F4E00000F09FFB00220F49204600F09AFBA36921
:10F4F00023F40023A361A36913F4002FFBD100239D
:10F500002B74AB7C1BB938BD0023EB85EAE705F112
:10F510002C0000F01FFDF6E7680B0100380000200A
:10F52000170003001600030038B5154B53F82040B0
:10F53000144B53F82050236923F40003236195F8FA
:10F540002A00FEF729FE00220F49204600F069FB41
:10F55000A36923F40023A361A36913F4002FFBD153
:10F56000AB7C43B9EB8D9BB2022B04BF0023EB8530
:10F5700000232B7438BD05F12C0000F0EBFCF1E703
:10F58000680B0100380000201600030008B50E4B80
:10F5900053F820300D4A52F820001A681B7D43B101
:10F5A000012B09D01378517843EA012100F010FBB8
:10F5B00008BD1378037708BD1378517843EA012119
:10F5C00000F0FBFA08BD00BF38000020680B010006
:10F5D00038B5154B53F82050144B53F82040A3690D
:10F5E00023F48023A361A36913F4802FFBD10021AE
:10F5F000204600F099FBE36900220D49204600F007
:10F6000010FBEB7C43B900236B742B8E9BB2022B57
:10F6100004BF00232B8638BD05F12B0000F09AFCB7
:10F620000023EB74EFE700BF38000020680B0100F7
:10F630001500030038B5164B53F82040154B53F80E
:10F640002050A36923F48023A361A36913F4802FBE
:10F65000FBD10021204600F067FB236923F400134F
:10F660002361E36995F82900FEF796FDEB7C43B929
:10F670002B8E9BB2022B04BF00232B8600236B74BE
:10F6800038BD05F12B0000F065FC0023EB74EFE7BB
:10F69000680B01003800002010B582B0134B53F8FE
:10F6A0002030134A52F820005C681B7D73B1012B97
:10F6B0000FD00DF1060100F0A5FABDF80630237059
:10F6C000BDF806301B0A637002B010BDC369237019
:10F6D000FAE70DF1060100F08CFABDF80630237050
:10F6E000BDF806301B0A6370EEE700BF380000204B
:10F6F000680B0100384B53F820303BB11A7C0AB13B
:10F70000022070475B7C0BB1022070472DE9F0416D
:10F7100082B00C46314B53F8205001A9304B185C95
:10F72000FEF702FD01984FEA840CB0FBFCFC1FFAC7
:10F730008CFC4FEA8C07B0FBF7F7BC4234BF3F1B91
:10F74000E71BB0FBF4F8B8F1200F28BF4FF02008FA
:10F75000B8F1040F38D905264FF0040E324604E004
:10F76000013292B21646424513D806FB04F1B0FBB3
:10F77000F1F18BB202FB03F3B0FBF3F39C4234BF15
:10F780001B1BE31ABB42EBD81FFA81FC1F46B6468F
:10F79000E6E7BEF1070F19D92A6922F0F8520EF1F7
:10F7A000FF331B0603F0F85313432B612B6923F43B
:10F7B000FF5323F01F03CCF30C0C4CEA03032B6123
:10F7C000002002B0BDE8F0814FF0040E2B6943F435
:10F7D00000332B61E0E700BF38000020680B010018
:10F7E000740B0100F0B583B006460C461546304B4D
:10F7F00053F8207001A92F4B185CFEF795FC631E8F
:10F8000004F13301002203F8012F8B42FBD12A4B74
:10F8100043F82640EB7984F82830AB7923752B7AAE
:10F8200084F829306B7A84F82A30384600F08CF955
:10F8300029683046FFF75EFF2B7983B30122A9794F
:10F84000384600F093F92979384600F0A7F93B696A
:10F850006A7923F4005343EA42333B610025E5858E
:10F860002586294604F12B0000F087FB0746294630
:10F8700004F12C0000F081FB012F16D001280CD0E0
:10F880000E4B9C572A460E4B53F826102046FFF786
:10F89000A7FC2046FFF7C4FC284603B0F0BD0022B9
:10F8A000A979384600F062F9CDE73846F5E700BFA0
:10F8B000680B0100740B010038000020780B010078
:10F8C000A084FF1FF8B50646934B53F82040934B96
:10F8D00053F820509249204600F000FAB8B140F2A7
:10F8E00001632B8695F82830012B79D03046FFF73D
:10F8F000A1FEAB691BB1EA690321284698476369F9
:10F9000023F0C02323F4F81343F470236361854983
:10F91000204600F0E3F9B8B140F203632B8695F876
:10F920002830012B60D03046FFF784FEAB691BB155
:10F93000EA69032128469847636923F0C02323F42A
:10F94000F81343F4702363617749204600F0C6F949
:10F95000B8B140F204632B8695F82830012B47D0CC
:10F960003046FFF767FEAB691BB1EA690321284601
:10F970009847636923F0C02323F4F81343F47023FA
:10F9800063616A49204600F0A9F9B8B140F2056305
:10F990002B8695F82830012B2ED03046FFF74AFEF3
:10F9A000AB691BB1EA69032128469847636923F0D4
:10F9B000C02323F4F81343F4702363615C492046A9
:10F9C00000F067F9E0B95B49204600F062F90028D1
:10F9D00047D15949204600F05CF9002879D1F8BD9B
:10F9E0003046FFF7F5FD84E73046FFF7F1FD9DE770
:10F9F0003046FFF7EDFDB6E73046FFF7E9FDCFE70C
:10FA00004E49204600F06AF90028DCD0434B53F8F9
:10FA100026503046FFF740FE2B7DDBB96B68013383
:10FA20006B60EB68013BEB60EB682BB9AB691BB11A
:10FA3000EA69002128469847EB68002BC3D130467D
:10FA4000FFF7C6FDAB69002BBDD0EA69022128464D
:10FA50009847B8E76B6802336B60EB68023BEB607A
:10FA6000E2E73749204600F039F90028B1D02B4BA6
:10FA700053F82650AB68002BABD0274B53F82670B9
:10FA80003046FFF783FD2B7DE3B92B6801332B60F4
:10FA9000AB68013BAB60AB68002B9AD12B6A1BB102
:10FAA0006A6A012128469847AB68002B91D1002251
:10FAB0002049384600F0B5F801221F49384600F0C9
:10FAC000B0F886E72B6802332B60AB68023BAB6073
:10FAD000E1E71C49204600F001F900283FF47FAF20
:10FAE0000E4B53F82640A368002B7FF478AF94F8B0
:10FAF0002830012B0BD03046FFF716FD236A002B70
:10FB00003FF46DAF626A02212046984767E73046AE
:10FB1000FFF7D8FCF2E700BF680B010038000020B7
:10FB20001300020011000200100002001200020087
:10FB30001500030017000300160003001500020063
:10FB40001700020016000200064B0361064B4361DA
:10FB500000238361036243624FF470328262C362A6
:10FB6000704700BF0400000F00C01FC010B40C4657
:10FB700002B14C1C022C0CD0836923F0100343EA21
:10FB800004138361036923F0005303615DF8044BA0
:10FB90007047036943F000530361F7E7826901F09E
:10FBA000FE0322F0020213438361836923F0010301
:10FBB00001F001011943816170478369C1F300229B
:10FBC00023F0804343EA82738361C9B201777047AF
:10FBD000836923F08043C1F3002243EA827323F058
:10FBE0000043C1F3402243EAC2738361C9B2017783
:10FBF00070478369DB0F1B020B80C269D2B21343CB
:10FC00000B80704783695B0D03F400730B8082697E
:10FC1000D20F43EA02230B80C269D2B213430B8096
:10FC2000704710B48BB2090C03291ED00FD90629D6
:10FC300025D0072916D1816A01249C4021F4403146
:10FC400021EA040102FA03F30B4383620AE001296B
:10FC500008D1016901249C4021EA040102FA03F35E
:10FC60000B4303615DF8044B7047816901249C409C
:10FC700021EA040102FA03F30B438361F2E7416ACC
:10FC800001249C4021EA040102FA03F30B4343627E
:10FC9000E8E70B0C032B13D009D9062B16D0072B42
:10FCA0001AD1806A89B2C84000F001007047012B68
:10FCB00012D1036988B223FA00F000F00100704706
:10FCC000806989B2C84000F001007047406A89B27B
:10FCD000C84000F001007047002070470B0C042B57
:10FCE00013D009D9062B16D0072B1AD1806A89B2F6
:10FCF000C84000F001007047022B12D1436988B25E
:10FD000023FA00F000F001007047C06989B2C840D2
:10FD100000F001007047406A89B2C84000F001005D
:10FD2000704700207047000038B505460C460A466B
:10FD30000949FFF776FF224608492846FFF771FF79
:10FD4000224607492846FFF76CFF22460549284608
:10FD5000FFF767FF38BD00BF1B000300180003005A
:10FD60001A0003001900030008B50020FFF7AAFDE0
:10FD700008BD08B50120FFF7A5FD08BD08B50220A4
:10FD8000FFF7A0FD08BD60B170B506460C46002522
:10FD9000204600F04DF801351834AE42F8D100206D
:10FDA00070BD0020704710B4036801248C4023EA22
:10FDB00004038A401A4302605DF8044B70470069EF
:10FDC00070470000184B984204D0184B98421ED040
:10FDD000FF2070470D2911D007D90F2914D010D357
:10FDE00010291FD102F00D00704721B1012919D14E
:10FDF00042F00200704742F00100704742F00400F8
:10FE0000704742F00800704702F00E00704719B1C9
:10FE1000012904D0FF20704702F00B00704702F068
:10FE200007007047FF20704700A0044000B0044066
:10FE300038B504460068616850F82120237A012B08
:10FE40003FD0002B3AD0022B40D0657A2D0105F02F
:10FE5000100322F050051D43A37A9B0103F04003D9
:10FE60002B4323F4E065E37A082B32D01B0203F422
:10FE7000E0632B43227BD20392B223F47823134313
:10FE8000627B120402F470221343A27B0AB143F096
:10FE900080732268616842F821302168D1F8C0205F
:10FEA00060680123834022EA0302E37B834013431B
:10FEB000C1F8C030E37A012B21D038BD22F0020214
:10FEC000C3E722F0010242F00202BEE742F0030261
:10FED000BBE71B4B5A6802F00F02FFF773FFFF28C6
:10FEE0000BD0174B5A6822F00F025A605A6800F084
:10FEF0000F00104358600023B8E70023B6E72169DC
:10FF00004B69227D22B1012A0AD0012A05D10BE0DA
:10FF1000616801228A4023EA020322695361CCE727
:10FF20006068012282401343656808680122AA4084
:10FF300020EA0200627DAA4002430A60EDE700BFAA
:10FF400000800440024A136801331360704700BF09
:10FF50004400002010B50446FFF77CF92378DBB29B
:10FF6000FF2B08D023780133DBB223700024FFF786
:10FF700063F9204610BD0124F9E738B504460D4663
:10FF8000FFF768F92570FFF757F9002038BD00200A
:10FF9000704770477047000008B523490020FCF700
:10FFA00073FC0020FCF776FD204B1B7C022B19D044
:10FFB000032B11D0012B1BD01D4800F0FCFA1B4B6A
:10FFC00093F83030022B20D0032B25D0012B15D0F5
:10FFD000184800F0F0FA08BD144B597C164800F0A0
:10FFE000B3FAE9E7114B597C134800F046FAE3E70E
:10FFF0000E4B597C104800F016FADDE70B4B93F8D6
:020000021000EC
:1000000031100E4800F00FFAE2E7084B93F8311078
:100010000A4800F032FADBE7044B93F83110074846
:1000200000F092FAD4E700BF7C0B0100008AFF1FAA
:1000300030020020AC020020D00100204C02002041
:10004000104B1B78013303F0010348BF5B42D8B269
:1000500003F001030C4A02EB4312927962B90130BA
:1000600000F0010048BF4042C2B2074B03EB42130D
:100070009B791BB9FF207047D8B200E01046014BB6
:1000800018707047408AFF1F008AFF1F2DE9F0415A
:1000900082B004462B4B03EB40131B7C022B37D062
:1000A000032B42D0012B08D0274AC0EB40139B0002
:1000B000D118D35AA1F86C300BE0234AC0EB40139F
:1000C0009B00D5182846D15A043000F0B9F9A5F89C
:1000D0006C0067011B4D3D44AB69EA8AA98A1A4E40
:1000E000A7EB040806EB8808B8F86C00ED690095EA
:1000F00000F086F90146C8F8700008F1640000F0CD
:100100006FFABDEEC00A88ED1D0A02B0BDE8F081AD
:100110000D4AC0EB40139B00D5182846D15A043035
:1001200000F0D1F9A5F86C00D3E7074AC0EB401303
:100130009B00D5182846D15A043000F017FAA5F8CC
:100140006C00C6E7008AFF1FCC01002010B582B00A
:10015000294B1B78012B10D02BB1022B1BD0032B6A
:100160003AD002B010BDFFF76BFF244B1870FF2888
:10017000F7D00122204B1A70F3E7204B1B78204A5E
:1001800002EB4312083200210846FCF741FC022230
:10019000194B1A70E5E700210846FCF765FC0028BA
:1001A000DFD00DF1060200210846FCF767FC134C76
:1001B0002078C0EB4012BDF80610124B23F8221035
:1001C000FFF764FF20780E4B03EB4013DB68984782
:1001D0000322094B1A70C4E7084B1A78084B03EB4B
:1001E00042135B8823B1064B03EB42120023937149
:1001F0000022014B1A70B4E7C9010020C801002099
:10020000008AFF1FCC01002008B5FFF79FFF08BD43
:1002100070B40C4B03F140040125002603E09D71EE
:100220002033A3420BD059880029F8D09A88013294
:1002300092B291428EBF9A809E809D71F0E770BC11
:10024000704700BF008AFF1F08B5054A0549002016
:10025000FEF7E4F800F038F800F0A8F808BD00BF99
:10026000D885FF1F4C00002008B500F09BF808BDA2
:1002700030B4074A81000B1802EBC30304241C614D
:100280000A241C760B255D769D76DC7630BC7047A3
:10029000C4020020F0B4BDF810700A4D8600341876
:1002A00005EBC404A1602271002284F8242063714C
:1002B000278467842273A27522756275059BA362E9
:1002C000F0BC7047C402002030B583B00A4C2C2229
:1002D0000021204600F012FB0848437A027A416868
:1002E000C5680195408900900020FFF7D3FF0023E7
:1002F000237003B030BD00BFC4020020448AFF1F3A
:1003000070B582B0254B1B78022B39D018D8FBB1C1
:10031000012B13D1224C04F1080563682A46002101
:100320000846FEF7EDF96368143400942A4600216C
:100330000846FEF713FA0222184B1A7002B070BD7D
:10034000032B27D0042BF9D10022144B1A70F5E7A8
:10035000124B93F82430012BF0D1104E002086F878
:100360002400B36A98470E4C351D0FCD0FC40FCD36
:100370000FC495E8030084E8030001233370DDE730
:1003800000210846FEF79AFB0228D7D00322034B30
:100390001A70D3E70422014B1A70CFE7C402002081
:1003A000F002002008B5FFF7ABFF08BD064B1B7934
:1003B000012B00D07047044B5B79012BFAD101224D
:1003C000014B83F82420F5E7C40200200B4B1B7976
:1003D000012B00D07047094B5B79042BFAD1074AF7
:1003E000538C013B9BB25384002BF3D11346128CE8
:1003F0005A84012283F82420ECE700BFC4020020C5
:1004000030B4029CE41A451A521A09D002EBD27099
:10041000401005FB040494FBF2F0184430BC704714
:100420004FF0FF30FAE70164002343648364C36440
:10043000831E3E30002223F8022F8342FBD17047F7
:1004400010B4846C436C30F8132020F8131021444E
:10045000891A8164026C0133B3FBF2F402FB14339A
:100460004364C36C9A4284BF0133C364C06CB1FB64
:10047000F0F080B25DF8044B704701640023C36460
:10048000831E3E30002223F8022F8342FBD17047A7
:1004900070B44E1E15D001F10044013C00EB440441
:1004A00000250CE01A8859888A4284BF19805A8036
:1004B0000233A342F6D10135023CB54201D00346D6
:1004C000F7E770BC704730B591B00546046C012C5D
:1004D00007D000EB4403023B33F8022D5A808342DD
:1004E000FAD12980EB6C9C4284BF0133EB64E96C48
:1004F00061B1AA1EADF1020310A800EB4104423C19
:1005000032F8020F23F8020FA342F9D16846FFF731
:10051000BFFFEB6C13F0010F07D023F0010310AA0B
:10052000134433F8400C11B030BD5B0810AA02EB45
:10053000430232F8420C10AA02EB430333F8403C6A
:100540001844C0F34F00EEE707EE901AF8EEE76AA2
:100550009FED057AC6EE877AC0ED157A0023836594
:100560000023C365704700BF0000C84207EE901A21
:10057000C36DCBB1D0ED156AB7EE007A37EE667A6F
:1005800090ED166A27EE067AF8EEE77A67EEA67A1D
:1005900077EE277AC0ED167AD0ED167AFCEEE77A80
:1005A00017EE903A98B27047F8EE677AC0ED167A77
:1005B0000123C365F0E70023036000234360704715
:1005C000B5EEC00AF1EE10FAF6EE007AACBF30EEEE
:1005D000270A30EE670ABDEEC00A10EE100A704717
:1005E00008B507EE901A43685BB3F8EEE77AD0EDF2
:1005F000006A37EEE67AB7EE006AB4EEC67AF1EE3C
:1006000010FA06DBB1EE046AB4EEC67AF1EE10FA27
:1006100026D9BFEE006AB4EEC67AF1EE10FA28D9F8
:10062000F1EE046AB4EEE67AF1EE10FA06DCF9EEC9
:10063000046AB4EEE67AF1EE10FA08D5C0ED007A5D
:1006400005E0F8EEE77AC0ED007A0123436090ED13
:10065000000AFFF7B5FF07EE900AB8EEE70A08BDFB
:10066000F6EE007A27EE277A37EE267A80ED007ACA
:10067000EDE7B9EE046AB4EEC67AF1EE10FACFDB1C
:10068000F6EE007A27EE277A37EE267A80ED007AAA
:10069000DDE77047704710B50C46FFF790FB01216E
:1006A000A140014214BF0120002010BD70B50446D6
:1006B0003A4A00EB4003DB00D5182979D058FFF700
:1006C000EAFF2875EB7B012B31D013B1022B56D0FA
:1006D00070BD04EB4403314A02EBC3035B7D012B85
:1006E00017D004EB44032D4A02EBC3039B7B8342E8
:1006F00053D115466600331902EBC3031846998996
:10070000083000F09DF8344405EBC4050123EB7379
:1007100070BD04EB440302EBC3039B7B83423CD0DC
:1007200004EB440402EBC4040023637570BD04EBC6
:1007300044001A4B03EBC000083000F089F860B3A6
:1007400004EB4403154A02EBC3031A7D9B7B9A42D8
:1007500007D004EB4404114B03EBC4040023E37300
:1007600070BD0E4D6600331905EBC3031B692046AF
:100770009847344405EBC4050223EB7370BD04EBCA
:100780004403064A02EBC3039B7B834205D004EB80
:10079000440402EBC4040023E37370BD548AFF1FBA
:1007A000704708B50020FFF781FF0120FFF77EFFAB
:1007B00008BD000008B5054B03EBC001CA790979F3
:1007C00053F83000FFF7EFFA08BD00BF848AFF1F1F
:1007D00008B5054B03EBC003DA7982F00102DA7148
:1007E000FFF7E8FF08BD00BF848AFF1F10B5002493
:1007F000E0B2FFF7DFFF01340A2CF9D110BD7047DA
:1008000008B5002205491046FEF72EFE3A20FEF7F5
:1008100007FD0020FEF742FE08BD00BF880B010067
:1008200008B50020FEF730FE044A13680133136058
:10083000FFF7CCFDFFF7ECFC08BD00BF180300205C
:10084000024B1B6819440160704700BF1803002069
:10085000044B1B6800681B1A034883428CBF0020AE
:100860000120704718030020FEFFFF7F10B51B4CCE
:100870002046FCF7B3FF1A492920FFF784FA2046E7
:10088000FCF7ACFF0023174A01211748FDF7CAFB0C
:1008900000210846FDF7D4FBFFF7A8FFFFF780FF14
:1008A000FFF7AEFFFFF7D0FC104A11490020FEF71A
:1008B00099FF104A10490220FEF794FFFFF76CFBE6
:1008C0000324FFF76EFFFFF79FFCFFF7CDFCFFF758
:1008D00096FF2046FFF77CFFF3E700BFAC84FF1FC5
:1008E0002886FF1F480000203485FF1F1086FF1F49
:1008F000600100201C86FF1F940100200244034673
:10090000934200D1704703F8011BF9E700B00340A0
:100910000070024000000000000000000000000025
:1009200000000000000000000000000000000000C7
:1009300000000000000000000000000000000000B7
:1009400000000000000000000000000000000000A7
:100950000000000000000000000000000000000097
:100960000000000000007300320021006100490017
:100970004A004B004C004D003D00000024002500C3
:100980002B00360031000000200000003800390044
:100990003A00260000003B0027005A00660037009E
:1009A0002C002D002E0040006A006B006C0000003F
:1009B0000000000000000000000000000000000037
:1009C00000FCAC06007E5603003FAB0100FCAC0609
:1009D000007E5603003FAB0100FCAC06007E5603D0
:1009E000003FAB010000000000000000000000001C
:1009F00000000000000000000000000000FCAC0649
:100A0000007E5603003FAB01000000000000000024
:100A10000000000000B4C404006CDC02B0F39601D6
:100A200000B4C404006CDC02B0F3960100B4C4044A
:100A3000006CDC02B0F39601000000000000000032
:100A400000000000000000000000000000000000A6
:100A500000B4C404005A6202B0F396010000000022
:100A6000000000000000000000093D0000093D00FA
:100A700040420F0000093D0000093D0040420F00C8
:100A800000093D0000093D0040420F000000000049
:100A90000000000000000000000000000000000056
:100AA0000000000000093D0000093D0040420F0029
:100AB0000000000000000000000000000000000036
:100AC00000000000000000000000000000000041E5
:100AD0004141414100000000002020202020202032
:100AE00020202000404040404000800048484848C6
:100AF00000303030303030303036303030000000B0
:100B000001000000004002400050024000B00240DE
:100B10004E555C004F565D0051585F52808000007A
:100B20005080800000010203040506070809090936
:100B3000090A0A0A0A0B0B0B0B0C0C0C0C0D0D0D01
:100B40000D0D0D0D0D0E0E0E0E0E0E0E0E0E0E0ECA
:100B50000E0E0E0E0E0F0F0F0F0F0F0F0F0F0F0FAA
:100B60000F0F0F0F0F00000000A0064000B006405E
:100B700000C006404A4B4C001F21230002640100C4
:100B80000000000001000000000100000000000063
:100B9000E803000001000000F8B500BFF8B500BF91
:080BA000ECB8FF7F010000002A
:100BA8004101020000420102000029010000002A60
:100BB800010000002B010000002C0100000034019E
:100BC800000000350100000036010000004301026A
:100BD80000003A010000003C010200003D01020053
:100BE800003E010200003F01020000440102000033
:100BF80045010200004601020000470102000048CA
:100C08000102000049010200004A010200004B01F4
:100C18000200004C0102000037010000003801000A
:100C280000002D010000002E010000002F0100002F
:100C38000030010000003101000000320100000016
:100C480069FD000073FD00007DFD00000101010148
:100C580001010000010100000100010000127A00FA
:100C680000010003010100000001000000000C0069
:100C78000203000001000000000000000000000066
:100C88000301010000030300010203010006000143
:100C98000101000001010001010000000000000046
:100CA800000000000000000000000000000000003C
:100CB8000000000000000000000000000101010128
:100CC8000101010100000000200000003885FF1F1D
:100CD80001010000AC84FF1F410102000042010233
:100CE800000046010200004701020000480102001E
:100CF800004A010200004B010200004C0102000002
:100D08004401020000450102000049010200003CC4
:100D1800010200003D010200003E010200003F0107
:100D2800020000430102000029010000002A01001E
:100D380000002B010000002C010000003A01000017
:100D480000370100000038010000003201000000F7
:100D58003401000000350100000036010000002DBC
:100D6800010000002E010000002F010000003001EA
:100D78000000003101000000100000000000000029
:100D8800000000000700000004000000010000004F
:100D9800000000000100000000000000000000004A
:100DA800000000000000000000000000000000003B
:100DB80000C20100000000010000000000C20100A4
:100DC8000000000100000000009004401100000035
:100DD800000000010000000000F00F4001010000C9
:100DE8000090044002000000000000030000000022
:100DF8000000000000000000009004400300000014
:100E080000000003000000000000000000000000D7
:100E180000900440060000000000000100000000EF
:100E280000F00F400100000000900440070000009F
:100E3800000000010000000000F00F400100000069
:100E480000900440080000000000000200000000BC
:100E580000000000000000000090044009000000AD
:100E68000000000200000000000000000000000078
:100E780000A0044000000000000000050000000081
:100E8800000000000000000000A004400100000075
:100E98000000000500000000000000000000000045
:100EA80000A004400C000000000000040000000046
:100EB800000000000000000000A004400D00000039
:100EC8000000000400000000000000000000000016
:100ED80000A0044002000000000000000000000024
:100EE800000000000000000000A004400300000013
:100EF80000000000000000000000000000000000EA
:100F080000B00440000000000000000200000000E3
:100F1800000000000000000000B0044001000000D4
:100F280000000002000000000000000000000000B7
:100F380000B004400A0000000000000100000000AA
:100F480080F00F400100000000B004400B000000DA
:100F5800000000010000000080F00F4000000000C9
:100F680000B004400C000000000000010000000078
:100F780080F00F400000000000B004400D000000A9
:100F8800000000010000000080F00F400000000099
:100F980000B004400E000000000000000000000047
:100FA800000000000000000000B004400F00000036
:100FB8000000000000000000000000000000000029
:100FC80000B004400200000000000004000000001F
:100FD800000000000000000000B004400300000012
:100FE80000000004000000000000000000000000F5
:100FF80000B00440080000000000000200000000EB
:10100800000000000000000000B0044009000000DB
:1010180000000002000000000000000000000000C6
:1010280000C00440000000000000000100000000B3
:10103800C0F00F400100000000C0044001000000A3
:101048000000000400000000000000000000000094
:1010580000C004400A000000000000010000000079
:10106800C0F00F400000000000C004400C00000069
:101078000000000100000000C0F00F400000000068
:1010880000C0044003000000000000010000000050
:10109800C0F00F400000000000C004400400000041
:1010A8000000000100000000C0F00F400000000038
:1010B80000C004400600000000000001000000001D
:1010C800C0F00F400000000000C00440080000000D
:1010D8000000000100000000C0F00F400100000007
:1010E80000D004400A0000000000000100000000D9
:1010F80000F10F400100000000D004400B00000088
:10110800000000010000000000F10F400100000095
:1011180000D004400D0000000000000100000000A5
:1011280000F10F400100000000D004400F00000053
:1011380000000004000000000000000000000000A3
:1011480000D004401000000000000004000000006F
:10115800000000000000000000D00440040000006F
:10116800000000010000000000F10F400100000035
:1011780000D004400500000000000001000000004D
:1011880000F10F400100000000D0044007000000FB
:10119800000000010000000000F10F400100000005
:1011A800010005000000010000000C0093FF000092
:1011B800010A00000000680B00000000B0040000F5
:1011C80001000500000001000000060095FF000076
:1011D800010A00000000680B00000000B0040000D5
:1011E800FF00000000000000010200000104E80305
:1011F8007102010080F00F400C00000000000000A8
:1012080032000100930601000001000080F00F4049
:101218000B000000000000003200010095060100EC
:101228000001000000F00F400601000000F10F402F
:101238000701000000F00F4007010000C0F00F4058
:101248000801000100F10F400D01000000F10F40FE
:101258000A01000000F10F400B010000C0F00F4030
:101268000001000000F10F400401000000F10F40F0
:04127800050100006C
:040000030000C41124
:00000001FF
