:10C000000070002011C4000059C4000059C4000091
:10C0100059C4000059C4000059C4000000000000C9
:10C0200000000000000000000000000059C40000F3
:10C0300059C400000000000059C40000F5020100CE
:10C04000D7E50000E1E50000EBE50000F5E50000C4
:10C05000FFE5000009E6000013E600001DE6000011
:10C0600027E6000031E600003BE6000045E6000060
:10C070004FE6000059E6000063E600006DE60000B0
:10C0800077E6000059C4000059C4000059C40000FC
:10C0900059C4000059C4000059C4000059C400002C
:10C0A00059C4000059C4000059C4000059C400001C
:10C0B00059C4000059C4000059C4000059C400000C
:10C0C00059C4000059C4000059C4000059C40000FC
:10C0D00059C4000059C4000059C4000059C40000EC
:10C0E00059C4000059C4000059C4000059C40000DC
:10C0F00059C4000059C4000059C4000059C40000CC
:10C1000059C4000059C4000059C4000059C40000BB
:10C1100059C4000059C4000059C4000059C40000AB
:10C1200059C4000059C4000059C4000059C400009B
:10C1300059C4000059C4000059C4000059C400008B
:10C1400059C4000059C4000059C4000059C400007B
:10C1500059C4000059C4000059C4000059C400006B
:10C1600059C4000059C4000059C4000059C400005B
:10C1700059C4000059C40000F9FC000003FD000090
:10C180000DFD000017FD000021FD000059C4000056
:10C1900059C400002BFD000035FD000059C400000B
:10C1A0003FFD000059C4000059C4000059C40000FC
:10C1B00049FD000053FD000059C400005DFD000072
:10C1C00059C4000059C4000059C4000059C40000FB
:10C1D00059C4000059C4000059C4000059C40000EB
:10C1E00059C4000059C4000059C4000059C40000DB
:10C1F00059C4000059C4000059C4000059C40000CB
:10C3F00059C4000059C4000059C40000FFFFFFFFEA
:10C40000FFFFFFFFFFFFFFFFFFFFFFFFFE7FFFFFBD
:10C4100072B64FF000014FF000024FF000034FF0F2
:10C4200000044FF000054FF000064FF00007B8463B
:10C43000B946BA46BB46BC460448854604488047D0
:10C440000448804762B607F00BF8FEE70070002052
:10C4500025CF000061CF0000FFF7FEBF53B94AB9F6
:10C46000002908BF00281CBF4FF0FF314FF0FF30FC
:10C4700000F07EB9ADF1080C6DE904CE00F006F8CD
:10C48000DDF804E0DDE9022304B070472DE9F04750
:10C49000089D04468E46002B4ED18A4294466DD9A3
:10C4A000B2FA82F757B1C7F1200EB94020FA0EFE5A
:10C4B00002FA07FC4EEA010E00FA07F44FEA1C49A3
:10C4C000210CBEFBF9F61FFA8CF809FB16EE41EAC7
:10C4D0000E4106FB08F38B420AD91CEB010106F161
:10C4E000FF3280F027818B4240F22481023E61447A
:10C4F000C91AA4B2B1FBF9F009FB101144EA0144D6
:10C5000000FB08F8A0450AD91CEB040400F1FF3336
:10C5100080F00E81A04540F20B810238644440EA6D
:10C520000640A4EB080400267DB1FC4000232C60EB
:10C530006B603146BDE8F0878B4209D9002D00F0D1
:10C540001481002685E8030030463146BDE8F087B7
:10C55000B3FA83F6002E40F090808B4202D38242E1
:10C5600000F2FD80841A61EB030101208E46002D4C
:10C57000EBD085E810403146BDE8F0871AB94FF09E
:10C58000010CBCFBF2FCBCFA8CF7A7BBA1EB0C03C3
:10C590004FEA1C421FFA8CF80126B3FBF2FE210C75
:10C5A00002FB1E3341EA034108FB0EF38B4208D91C
:10C5B0001CEB01010EF1FF3002D28B4200F2D18060
:10C5C0008646C91AA3B2B1FBF2F002FB101143EA8E
:10C5D000014408FB00F8A04508D91CEB040400F155
:10C5E000FF3302D2A04500F2B7801846A4EB08043E
:10C5F00040EA0E4098E7C7F1200301FA07F40CFA6D
:10C6000007FC20FA03FED9404FEA1C424EEA040E12
:10C61000B1FBF2F64FEA1E4302FB16111FFA8CF82B
:10C6200043EA014306FB08F1994200FA07F40AD9EC
:10C630001CEB030306F1FF3080F08C80994240F23E
:10C640008980023E63445B1A1FFA8EF1B3FBF2F05D
:10C6500002FB103341EA034100FB08F38B4208D987
:10C660001CEB010100F1FF3E70D28B426ED9023803
:10C670006144CB1A40EA06468FE7C6F1200722FA4A
:10C6800007F8B34001FA06F448EA030320FA07FC6E
:10C690004FEA134EF9404CEA040CB1FBFEF94FEAA5
:10C6A0001C440EFB19111FFA83F844EA014109FBEF
:10C6B00008F48C4202FA06F200FA06FA08D9591870
:10C6C00009F1FF3044D28C4242D9A9F10209194440
:10C6D000091B1FFA8CFCB1FBFEF00EFB10114CEA9B
:10C6E000014400FB08F8A04507D91C1900F1FF31EF
:10C6F0002AD2A04528D902381C4440EA0940A4EBBC
:10C700000804A0FB02894C45C446494616D313D001
:10C7100055B1BAEB0C0364EB010404FA07F7F340DC
:10C720001F43F4402F606C6000263146BDE8F0875F
:10C730001846F4E61646DBE6C245E9D2B8EB020C31
:10C7400069EB03010138E3E70846D6E7704690E756
:10C750008146BDE7064676E70238644446E7304640
:10C7600005E7AEF1020E61442BE72E462846ECE6C3
:10C77000704700BF2DE9F843104C04F17805104EC6
:10C780000027DFF84090E37B012B04D01834AC4243
:10C79000F9D1BDE8F883237B7360F772A368337027
:10C7A00094F80D80636832464146384602F068FCD2
:10C7B0004A464146384602F0AFFCE7E7FC34010048
:10C7C0000400002038000020042801D9022070470E
:10C7D00000EB40031E4A02EBC303DB7B0BB10220DC
:10C7E000704700EB400302EBC3039B7B0BB10220BD
:10C7F0007047F0B583B0174C00EB400302EBC30366
:10C800001A7B62600022E2729B68E3B922700C46D8
:10C810000F4B4200111803EBC1014D7B4F680D4EC9
:10C820003B4632462946002002F0D2FB00943B46AC
:10C8300032462946002002F0F9FB002814BF0220EE
:10C84000002003B0F0BD0122024B1A70DFE700BFE9
:10C85000FC340100140000202DE9F041184AC1B257
:10C86000002002F059FC48BB164C04F17805144E28
:10C87000DFF8548006F1080704E0012B13D01834C8
:10C88000AC421BD0E37B012BF9D1616873689942FC
:10C89000F5D1A37B002BF0D16369002BEFD0394693
:10C8A00020789847EBE798F80030002BE7D16369D0
:10C8B000002BE4D0394620789847E0E7BDE8F081C6
:10C8C00038000020FC3401000000002010B50D4AA3
:10C8D000002303E001331832052B12D0DCB2D17BE8
:10C8E0000029F7D1517B8142F4D1042C08D8DBB266
:10C8F00003EB4303034A02EBC3031B6903B19847ED
:10C9000010BD10BDFC34010008B511B1042906D0DA
:10C9100008BD00B108BD1046FFF79EFF08BD002806
:10C92000F8D11046FFF7D2FFF4E7000038B5114BFD
:10C930001B7833B100220F4B1A700F4B1B78032B5F
:10C9400000D938BD0D490E485C00E21800EBC20268
:10C9500095684D60D5688D601569CD6052680A6034
:10C96000234400EBC30043690B61002002F066F929
:10C97000E7E700BF21000020200000202400002065
:10C980009C340100032804D80122024B1A70024B88
:10C990001870704721000020200000200122034B66
:10C9A0001A700020024B1870704700BF0000002072
:10C9B000100000200020034B18700122024B1A7057
:10C9C000704700BF00000020100000200020024B34
:10C9D0001870024B187070470000002010000020F3
:10C9E0000122034B1A700020024B1870704700BFE1
:10C9F000000000201000002030B4084B03F1300587
:10CA000000225C7820421CBF013292B20833AB4254
:10CA1000F7D1130A0B704A7030BC704788000020B1
:10CA2000F0B40F4B0F4C03F13007002203E0083342
:10CA30000C34BB4212D05D782842F8D06668350CC1
:10CA400001F8225001EB82054FEA162C85F801C04F
:10CA5000AE705E78EE700132D2B2E8E7F0BC70479B
:10CA60008800002074350100084BFF2203F83020B5
:10CA700003EBC000002343708370C37002714271E6
:10CA80008271C2710120024B18707047880000202B
:10CA9000840000200D2070470B4B5B68984210D03B
:10CAA000094B1B6998420AD0074BDB69834214BFCC
:10CAB00003200220022894BF00200120704701209B
:10CAC000F8E70020F6E700BF7435010008B500F074
:10CAD000FFF972B60122084B1A6000F0A7F8042390
:10CAE000064A136000214FF0E022C2F8081D80F3CF
:10CAF00008881B68984708BDB8000020D0000020B7
:10CB000008B50C4801F090F800F01AF80A4A18210C
:10CB10004FF0805000F026F800F070F9074900202F
:10CB2000FFF752FE00F0F2F90028FBD0FFF7CEFF2E
:10CB3000F8E700BF8087FF1FB8000020D400002066
:10CB400010B5064C2146064801F0AAFD4FF0FF3310
:10CB5000A361003018BF012010BD00BFDC00002021
:10CB60004438010069B130B40D4600210B46445CE5
:10CB7000545401339BB21946AB42F8D3002030BC69
:10CB8000704700207047000038B504460D460A463D
:10CB90000146064801F0F6FD08B1012038BD012329
:10CBA0002A092146014801F039FE38BDDC00002089
:10CBB00070B5C4B0054612F00F0F0FD01409013440
:10CBC0002401A4B2531E9BB29C4208D903AEFF209D
:10CBD000F05401339BB29C42FAD100E014465AB1A2
:10CBE0004B1E0DF10B00013A11FA82F113F8012FDF
:10CBF00000F8012F8B42F9D103AB224629460A489F
:10CC000001F042FE10B1002044B070BD0123019339
:10CC100043AB009303AB22462946034801F090FE44
:10CC2000B0FA80F04009EFE7DC00002010B54FF4C7
:10CC300000514FF08050FFF7A7FF074C1822214604
:10CC40004FF08050FFF7B4FF224618214FF080507C
:10CC5000FFF788FF10BD00BFB8000020027A02F085
:10CC60000F014B1EDBB2032B01D931207047120993
:10CC700001D1312070472DE9F041446814B93120C9
:10CC8000BDE8F081042A02D93120BDE8F0810329F2
:10CC900026D8D0F800C04B1EDB002CFA03F6F6B203
:10CCA0002F4A1779002F55D0D2F800E09EF80C20BB
:10CCB000B24224D0714600220132D2B2BA421BD015
:10CCC00010310D7BB542F7D11201012101FA03F3B6
:10CCD000013B03EA0C0C5EF8023043EA0C030360EC
:10CCE00003681C4404F1FF381D4B1B79002B34D022
:10CCF000044600251A4F0EE03120BDE8F0810022E5
:10CD0000E2E7737B63720020BDE8F0810135EDB28C
:10CD10003B79AB421BD92E013B68991922689B597C
:10CD20009A42F3D34B689845F0D806F085FB3B68F0
:10CD300033441B891842E9D005F038FF084B1B68C3
:10CD40001E4473890342DCD13320BDE8F0813120D9
:10CD5000BDE8F0813120BDE8F0813120BDE8F081EF
:10CD60004084FF1F5AB130B415460246002312F822
:10CD7000014BCC54131ADBB2AB42F8D330BC704732
:10CD800008B506F075FB002008BD08B503F0FCFCF3
:10CD90000121002003F0D2F908BD08B5FFF7EAFC35
:10CDA00003F008FB06F08EF908BD000008B5044A40
:10CDB0001368013313608021024803F0D9F908BDDC
:10CDC000FC00002000F00F4008B506F001FAFFF764
:10CDD000ADFD094A13780133DBB21370632B04D81D
:10CDE0000221002003F0AAF908BDFFF7DFFF0022AF
:10CDF000014B1A70F4E700BFF800002038B500249A
:10CE0000234B1C702349032003F09EF9224D8021FF
:10CE1000284603F0A9F98021284603F0A7F91F4905
:10CE2000204602F0F1FF1E4A2146204603F0A8F8F2
:10CE30001C4A0121204603F0A3F822461A4930205B
:10CE400002F092FF22461949312002F08DFF0121A4
:10CE5000204603F037F80221204603F033F8144946
:10CE6000204601F039FB22461249512002F07CFF96
:10CE7000512002F099FF104A1049204601F036FF78
:10CE800022460F49204602F053FBFFF786FF38BDCC
:10CE9000F80000201089FF1F00F00F4058380100F3
:10CEA000E088FF1FF888FF1F8BCD0000C9CD000070
:10CEB0003438010017FD0000A888FF1FD00C0020A7
:10CEC00009C90000014B1868704700BFFC00002032
:10CED00008B50021084603F029F90121002003F0DC
:10CEE00025F90021084603F021F90121002003F073
:10CEF0001DF9002002F0DEFF002002F023F908BD3A
:10CF00000122014B1A70704700010020014B187874
:10CF1000704700BF0001002008B50021084603F05B
:10CF2000F3F808BD4FF0E023D3F8882D42F47002E7
:10CF3000C3F8882DD3F8342F22F08042C3F8342F61
:10CF4000054B064A5A605A6842F220121A604FF6A0
:10CF5000FF729A60704700BF0020054020C528D9A5
:10CF6000264B274A9A4208D013462448254A13F8EC
:10CF7000011B02F8011B9842F9D1234B234A9A4224
:10CF800008D013462048224A13F8011B02F8011B5F
:10CF90008342F9D11F4B204A9A4206D01346002102
:10CFA0001C4A03F8011B9342FBD11C4B1C4A9A42BA
:10CFB00008D0134619481B4A13F8011B02F8011B3D
:10CFC0008342F9D1184B194A9A4212D010B4184C26
:10CFD000A40808D01946002351F8040B42F8040BAA
:10CFE0000133A342F8D1134B104A1A605DF8044B89
:10CFF0007047104B0C4A1A60704700BFD03D0100CB
:10D00000783801000084FF1F083E0100D03D010078
:10D010005889FF1FE80D002000000020083E010095
:10D02000083E01000000002000C000000080FF1F3B
:10D030000004000008ED00E0074B5B69DBB2042B45
:10D0400006D0802B06D0012B0CBF01200420704796
:10D05000022070470320704700E00740044BD3F8DC
:10D06000003113F0807F1ABF024B18680020704710
:10D07000004006401401002010B584B00B46002982
:10D080003BD0444AD2F8002112F0007F7DD1414AC2
:10D09000D2F8001121F40001C2F800114FF08061B4
:10D0A000C2F8001100213C4A1160002870D05A7A61
:10D0B000120202F4E062197A01F007010A433548CE
:10D0C000C0F80421DA79120102F030029979C9001E
:10D0D00001F008010A435979890001F004010A436B
:10D0E000C0F808211A79012A29D0E2B1022A32D0E7
:10D0F0001A68294B1A60294C3BE000238DF8043054
:10D100008DF80C3001228DF808208DF809208DF85B
:10D1100005208DF8063002238DF8073004AB204A35
:10D1200043F8102DADE71A7B002A14BF4FF400021C
:10D13000002242F001021749C1F80021D8E71A7B0A
:10D14000002A14BF4FF40002002242F001121149DC
:10D15000C1F80021CCE71A7B002A14BF4FF4030268
:10D160004FF4403242F001020A49C1F80021BFE702
:10D17000013CFFF773FF18B9002CF9D1032005E03B
:10D18000002C14BF0020032000E0022004B010BDDA
:10D190000020FBE7004006401401002088E7300033
:10D1A00000127A00084BD3F8003213F0807F09D0C8
:10D1B000054BD3F8083203F00103002B034808BFE6
:10D1C00000207047002070470040064000127A009F
:10D1D00010B582B00B46002938D02D4AD2F8002273
:10D1E00012F0007F4FD12A4AD2F8001221F4000138
:10D1F000C2F800120021C2F80012002846D09A7826
:10D20000120202F4E062597801F007010A43204952
:10D21000C1F804221A7802F00102C1F808225979F3
:10D220009A791B79002B14BF03230123002914BF13
:10D23000042100210B43002A14BF4FF400020022F6
:10D240001343134AC2F80032642410E000238DF81F
:10D25000043001228DF805208DF806308DF801206C
:10D260008DF8022002AB03F8082DB6E7013CFFF76A
:10D2700099FF18B9002CF9D1032005E0002C14BF48
:10D280000020032000E0022002B010BD0020FBE7D8
:10D2900000400640054BD3F8003313F0807F1DBFDC
:10D2A000024BD3F808330248002070470040064084
:10D2B000006CDC0210B582B00B46002932D0294A3E
:10D2C000D2F8002312F0007F47D1264AD2F800138B
:10D2D00021F40001C2F800134FF08061C2F800137E
:10D2E00000283DD09A78120202F4E062597801F0E9
:10D2F00007010A431B49C1F804231A7802F003020C
:10D30000C1F808239A795B79002B14BF0123092304
:10D31000002A14BF4FF4000200221343C1F8003367
:10D3200064240EE001238DF8053000228DF80620DC
:10D330008DF801308DF8023002AB03F8082DBEE7FE
:10D34000013CFFF7A7FF18B9002CF9D1032005E035
:10D35000002C14BF0020032000E0022002B010BD0A
:10D360000020FBE70040064008B50F4BD3F800361D
:10D3700013F0807F02D10023184608BDFFF76EFE30
:10D3800003460028F8D00849D1F80826C2F3022243
:10D390000132B0FBF2F3D1F80826C2F30442103296
:10D3A00003FB02F35B08E7E70040064010B584B0DA
:10D3B0000C4699B13D4BD3F8003613F0007F72D183
:10D3C0003A4BD3F8002622F40002C3F800264FF0AF
:10D3D0008062C3F80026A0B9002065E000238DF824
:10D3E00004308DF80B3001228DF808208DF80920CB
:10D3F0008DF8053007228DF806208DF8073001AC36
:10D40000D8E7FFF72BFE63791B0203F4E063227970
:10D4100002F0070213432549C1F8043663781B0262
:10D4200003F4E063A278120402F4F8121343C1F883
:10D4300008362378012B16D04BB1022B1FD04FF4A6
:10D440007A74FFF791FF48BB34B3013CF9E7E37905
:10D45000002B14BF4FF40003002343F00103134AD1
:10D46000C2F80036EBE7E379002B14BF4FF400035A
:10D47000002343F001130D4AC2F80036DFE7E379D9
:10D48000002B14BF4FF403034FF4403343F0010368
:10D49000064AC2F80036D2E7032005E0002C14BF8C
:10D4A0000020032000E0022004B010BD0040064030
:10D4B0002DE9F04180460D468C7801344E7806FB0C
:10D4C00004460F7807FB0447CB78022B18D006D907
:10D4D000032B18D0062B19D1FFF746FF03E0012BD1
:10D4E00014D1FFF7BBFD0009B8F1020F47D0B8F126
:10D4F000030F78D0B8F1010F0AD00020BDE8F08109
:10D50000FFF750FEEFE7FFF7C5FEECE70020EAE784
:10D51000EA7802EB42015B4B53F821301B0904FB14
:10D5200003F4A04200F293800B46564901EB8303BB
:10D530005B681B0906FB03F6B04200F28B8002EB2E
:10D54000420301EB83039B681B0907FB03F7B84207
:10D5500000F28380AB781B0403F47023120602F000
:10D56000706213432A7802F00F0213436A781201A3
:10D57000D2B21343444A53610020BDE8F081EA78F7
:10D5800002EB4201414B53F821301B0904FB03F429
:10D59000A04265D80B463D4901EB83035B681B093C
:10D5A00006FB03F6B0425ED802EB420301EB8303B5
:10D5B0009B681B0907FB03F7B84257D8AB781B04DD
:10D5C00003F47023120602F0706213432A7802F00B
:10D5D0000F0213436A781201D2B213432A4A9361AD
:10D5E0000020BDE8F081EB7803EB4301284A52F8B4
:10D5F0002120120904FB02F4A0423AD80A46244929
:10D6000001EB82025268120906FB02F6B04233D8DF
:10D6100003EB430201EB82029268120907FB02F757
:10D62000B8422CD8AA78120402F470221B0603F028
:10D63000706313432A7802F00F0213436A781201D1
:10D64000D2B21343104AD3610020BDE8F08101201B
:10D65000BDE8F0810120BDE8F0810120BDE8F08146
:10D660000120BDE8F0810120BDE8F0810120BDE886
:10D67000F0810120BDE8F0810120BDE8F0810120AA
:10D68000BDE8F0818C36010000400640E036010024
:10D690003836010038B50546FFF7CEFC2946FFF7BE
:10D6A00007FF044658B9E8780A220849013A0B698D
:10D6B000C3F30363984204D0002AF7D10324204621
:10D6C00038BD002A08BF0324F9E700BF0040064028
:10D6D00010B504461B4B1B69C3F30363022B19D01F
:10D6E00006D9032B19D0062B1AD1FFF73DFE03E014
:10D6F000012B15D1FFF7B2FC124B1B69C3F3034397
:10D700000133B0FBF3F0012C0CD0D4B1022C11D0BA
:10D71000002010BDFFF746FDEEE7FFF7BBFDEBE78E
:10D720000020E9E7074B1B69C3F303130133B0FB88
:10D73000F3F010BD034B1B6903F00F030133B0FB83
:10D74000F3F010BD0040064008B5104B1B6AC3F350
:10D750000363022B11D005D85BB1012B13D1FFF766
:10D760007DFC08BD032B0BD0062B0CD1FFF7FCFD75
:10D7700008BD0220FFF7ACFF08BDFFF713FD08BD91
:10D78000FFF788FD08BD002008BD00BF004006402F
:10D7900008B541B1012933D00020024610B1431E23
:10D7A00022FA03F008BD052818D00CD906281ED08F
:10D7B000072852D1FFF7D8FD02462B4BD3F80406B9
:10D7C00000F00700EAE7042847D1FFF7EBFC024628
:10D7D000254BD3F8040200F00700DFE7FFF75AFDFE
:10D7E0000246214BD3F8040300F00700D6E7FFF709
:10D7F00035FC02461C4BD3F8040100F00700CDE7CE
:10D80000052818D00CD906281ED0072828D1FFF7E4
:10D81000ABFD0246144BD3F80406C0F30220BDE76B
:10D8200004281DD1FFF7BEFC02460F4BD3F80402BB
:10D83000C0F30220B2E7FFF72DFD02460A4BD3F8F2
:10D840000403C0F30220A9E7FFF708FC0246064BD9
:10D85000D3F80401C0F30220A0E7002002469DE7B0
:10D86000002002469AE700BF0040064008B5114B71
:10D870001B69C3F30113012B0BD02BB1022B11D069
:10D88000032B12D0002008BD00210620FFF780FFE7
:10D8900008BD084B186900F00200002818BF4FF4BB
:10D8A000FA4008BD044B186808BD00210520FFF7A9
:10D8B0006FFF08BD0080044004010020114B1B696C
:10D8C000C3F38103022B07D0032B0ED0002B0CBF18
:10D8D0004FF4FA30002070470A4B186900F002003C
:10D8E000002818BF4FF4FA407047064B186910F033
:10D8F000020006D0186900F00100002818BF4FF49C
:10D900007A7070470080044008B5294B5B6813F4B7
:10D91000006F4AD0264B5B68C3F30313072B35D047
:10D920000AD90A2B3ED017D8082B33D0092B1AD18D
:10D930000120FFF7CDFE17E0022B1DD008D9042BE4
:10D940001FD0062B0FD101210520FFF721FF0BE08F
:10D950004BB9FFF7F9FE07E00C2B20D00E2B02D1BC
:10D96000FFF784FF00E00020114B5B68C3F3022344
:10D970000133B0FBF3F008BD01210620FFF708FFDB
:10D98000F2E701210420FFF703FFEDE70020FFF796
:10D990009FFEE9E701210720FFF7FAFEE4E7FFF722
:10D9A0008DFFE1E74FF4FA30DEE7002008BD00BF4D
:10D9B0000080044010B50C461C286FD022D81828CF
:10D9C00055D010D816283ED047D8152840F0A7804B
:10D9D0005F4BDB68C3F30163022B00F2AB805D4A4F
:10D9E00052F8233005E01A284AD04DD8FFF78CFFB3
:10D9F00003460020002B00F09580002C00F0A6804C
:10DA0000236010BD20286FD010D81E2858D060D8B1
:10DA1000514B9B78DB0940F097804D4B1B6903F01D
:10DA20000203002B18BF4FF4FA43E2E722286DD01F
:10DA300063D3232873D1464B1B6C13F001034DD1E4
:10DA40004FF48070D9E7424BDB68C3F38163022B4C
:10DA500072D8404A52F82330CBE73D4BDB68C3F322
:10DA60000173022B6AD83B4A52F82330C1E7384B86
:10DA7000DB689B0F022B63D8364A52F82330B8E795
:10DA8000FFF7F4FE0346B4E7334B9B78DB0901D084
:10DA90000023AEE7FFF712FF0346AAE72E4B9B7861
:10DAA000DB094FD12A4B1B6913F00203A1D0284B8D
:10DAB0001B6903F00103002B18BF4FF47A7398E73A
:10DAC000254B9B78DB09002B14BF00234FF4FA335E
:10DAD0008FE71F4B1B6CC3F3001343B30120FFF709
:10DAE000F7FD0346002085E7194B1B6CC3F3C00309
:10DAF000002BF3D14FF480707FE7154B1B6CC3F301
:10DB00008003002BEAD14FF4807076E7104B1B6C3A
:10DB1000C3F34003002BE1D14FF480706DE7042084
:10DB2000002367E7042818BF4FF4807065E74FF4BF
:10DB3000807062E700235CE700235AE7002358E780
:10DB4000002356E7002354E7002352E710BD00BF2F
:10DB5000008004400801002000D0074030B583B0A9
:10DB6000002301932F4B33F810309B0003F18043C7
:10DB700003F5CA231D68C5F3C0051C6804F007043B
:10DB8000AC421FD31A6812F0804F1BD01B68C3F33E
:10DB90000263022B19D008D9032B1BD0062B1ED1F0
:10DBA0000720FFF7F5FD019005E0012B17D10620B6
:10DBB000FFF7EEFD01900134019BB3FBF4F405FB8C
:10DBC00004440194019803B030BD0420FFF7E0FD48
:10DBD0000190F0E70520FFF7DBFD0190EBE73D2822
:10DBE00012D009D93E2815D03F2819D101A91820F3
:10DBF000FFF7E0FE0024DEE73C2811D101A9152043
:10DC0000FFF7D8FE0024D6E701A91620FFF7D2FEC1
:10DC10000024D0E701A91720FFF7CCFE0024CAE7B3
:10DC20000024C8E798350100F0B5A5B028B3044634
:10DC30000646002800F0FF80C54B1B69C3F3036351
:10DC4000032B00F0C680FFF725FB002800F0B8800A
:10DC500003238DF8073000228DF8062001228DF86D
:10DC6000052024A800F88C3DFFF714FD0546002888
:10DC700000F0AF80284625B0F0BD01238DF80B30B1
:10DC800000228DF80C208DF80D308DF80E208DF8C7
:10DC900008308DF809308DF80A308DF816308DF87F
:10DCA00014308DF815208DF80F208DF810308DF878
:10DCB00011308DF838300D928DF82530A549069138
:10DCC0008DF81C208DF824208DF81D308DF81E2035
:10DCD00002208DF81F008DF820308DF821308DF84E
:10DCE00030308DF828208DF82F208DF829200C2138
:10DCF0008DF82A108DF82B208DF82C308DF82D30D2
:10DD00008DF83D3003218DF83C108DF84B308DF8A7
:10DD100041108DF840208DF83F308DF83E308DF861
:10DD200045008DF844308DF843208DF842100620D0
:10DD30008DF849008DF848208DF847308DF8461051
:10DD400085492291202121918DF84C308DF84D206C
:10DD50008DF84E208DF84F208DF850308DF85430CE
:10DD60008DF853308DF852208DF851208DF8783091
:10DD70008DF879308DF87A308DF87B308DF87C30E5
:10DD80008DF87D308DF883308DF8583017921892C9
:10DD900019921A921B921C921D928DF87E308DF86A
:10DDA0007F308DF880208DF881208DF882208DF8CD
:10DDB0008C308DF88D308DF88E2002AE34463BE7E6
:10DDC00000210120FFF776FA054600287FF452AFC4
:10DDD0003EE73146E078FFF7FBF90546002800F002
:10DDE000C380FFF729F9022800F0F880032800F02B
:10DDF000F880012800F0D280002D7FF43BAF002294
:10DE0000564B1A6094F8303013B1E26A534B1A60E3
:10DE100094F8353053B14E490A6A22F0706294F892
:10DE200034301B0603F0706313430B6294F84330E5
:10DE3000002B40F0348194F84430E3B194F845501D
:10DE400094F8463094F847204549486820F400602B
:10DE50004860496821F47F61002D14BF4FF40060D1
:10DE600000201B01DBB2120202F4E06213430B43F9
:10DE700003433B4A536094F84830DBB194F84A308E
:10DE800094F849203649096921F03F0194F84C0083
:10DE9000014394F84B00002814BF022000209B008F
:10DEA00003F00C030B43120102F03002134303434F
:10DEB0002B4A136194F87030002B37D0284B196C23
:10DEC00021F0010194F871200A431A641B6C23F0BD
:10DED000020394F87220002A14BF02220022134386
:10DEE0001F4A1364136C23F0040394F87320002A70
:10DEF00014BF042200221343194A1364136C23F045
:10DF0000080394F87420002A14BF08220022134347
:10DF1000134A1364136C23F0100394F87520002A3D
:10DF200014BF1022002213430D4A136494F850309A
:10DF3000002B00F0FE800B4B626D1A60A26D5A60E0
:10DF4000E26D9A6004F160000121054DCCE000BF54
:10DF50000040064000127A004884FF1F04010020A0
:10DF6000008004400801002004F11001607FFFF7E9
:10DF700083F8054600287FF434AF04F1200194F8BB
:10DF80002800FFF713FA0546FFF756F8022825D0B8
:10DF9000032826D0012801D0002601E004F136062E
:10DFA000002D7FF429AFF378032B1DD08DF80730B7
:10DFB000B3788DF8063073788DF80530337824A85F
:10DFC00000F88C3DFFF766FB054600287FF414AF90
:10DFD000E11DA07BFFF76EF905460DE704F13A0657
:10DFE000DEE704F13E06DBE794F828300BBB637FE5
:10DFF00093BBE378002B42D10125002D7FF4FCAECA
:10E00000E11DA07BFFF756F9054600287FF4F4AE2A
:10E01000F3788DF80730B3788DF8063073788DF883
:10E020000530337824A800F88C3DFFF733FB054614
:10E03000E2E606238DF8073002238DF8063001232F
:10E040008DF8053024A800F88C3DFFF723FB05462A
:10E05000637F7BB10128D0D101238DF807300022E6
:10E060008DF806208DF8053024A800F88C3DFFF7C8
:10E0700011FB0546E378002BBFD0012DBDD1022353
:10E080008DF8073000238DF806308DF8053024A870
:10E09000012300F88C3DFFF7FDFA0546ADE704F1DA
:10E0A00036010120FFF704FA054600287FF4E2ADAF
:10E0B00004F13A010220FFF7FBF9054600287FF43E
:10E0C000D9AD04F13E010320FFF7F2F9054600281F
:10E0D0007FF4D0ADAFE626F04076130603F0407330
:10E0E0003343EB600131C9B250F8042BEE684B1E8C
:10E0F000DBB2012B09D0002BEDD0022B0CD0032B6F
:10E1000011D0EE600329EDD913E026F040669306A6
:10E1100003F040633343E4E726F04056130703F06F
:10E1200040533343DDE726F0404646EA8272404BD7
:10E13000DA6094F87630EBB13D4A936E0020906639
:10E14000516821F4805194F878301B0303F4805314
:10E150000B435360906694F877305BB194F8793054
:10E160005B0003F00E0394F87A2042F080521343D0
:10E170002F4A936614F17C0F38D0D4F88030002BEE
:10E1800034D0E36F93B300212A482B4D01EB810279
:10E19000D4F880309B5C30F813309B0003F180434F
:10E1A00003F5CA231E6826F080461E60D4F880302E
:10E1B0009F189E5CBB781B0603F0E063FA78D200E0
:10E1C00002F0080213433A7902F0070213437A7807
:10E1D000002A14BF4FF080420022134330F816206B
:10E1E00045F822300131E36F9942CFD394F884305F
:10E1F000DBB112498B7803F07F0394F8852082F01D
:10E20000010243EAC213DBB28B7094F98630002B13
:10E21000BCBF20335BB209490A7903F01F0302F047
:10E22000E00213430B71002524E5002522E500BF21
:10E2300000800440983501000050064000D007409F
:10E2400070B504460D46112807D9232840F29A805C
:10E250004D2840F29A80042070BD08285CD011D966
:10E260000D2870D02AD80A285FD059D30B2863D044
:10E270000C2840F0848000210520FFF789FA03462E
:10E28000002016E0032833D00BD905283AD034D328
:10E2900006283CD0072872D1FFF766F80346002015
:10E2A00007E0012818D01DD80020FFF711FA034617
:10E2B0000020002D00F0D0802B6070BD0F2850D0C2
:10E2C00048D3102854D0112859D101210720FFF735
:10E2D0005FFA03460020ECE70120FFF7F9F9034657
:10E2E0000020E6E70220FFF7F3F903460020E0E70D
:10E2F000FFF70AFB03460020DBE7FEF753FF034668
:10E300000020D6E7FEF7C6FF03460020D1E7FEF760
:10E31000A5FE03460020CCE7504B1B680020C8E751
:10E32000FFF712FA03460020C3E700210420FFF79D
:10E330002FFA03460020BCE701210420FFF728FA4A
:10E3400003460020B5E701210520FFF721FA034627
:10E350000020AEE700210620FFF71AFA034600204E
:10E36000A7E701210620FFF713FA03460020A0E7E4
:10E3700000210720FFF70CFA0346002099E700234D
:10E38000042096E7FFF716FB70BD242805D804206B
:10E390000023002D60D02B6070BDA0F13303DBB2F1
:10E3A0001A2B07D82E4A22FA03F313F0010F18BFD5
:10E3B0000420EDD12B4B33F814202B4B53F8223093
:10E3C00013F0804F37D14FF48070E1E70120FFF761
:10E3D0007FF9034600283AD100234FF48070D8E734
:10E3E0000020FFF775F903460028F5D02FE0022042
:10E3F000FFF76EF903460028EED028E016F0080F6C
:10E4000006D116F0100F0BD100234FF48070C0E737
:10E4100000212046FFF7A2FB034616F0100F04D0A0
:10E4200001212046FFF79AFB0346002B14BF002072
:10E430004FF48070ADE70D4B1E5D16F0200FC5D177
:10E4400016F0400FCCD116F0800FD0D1002316F07B
:10E45000180FD3D100209CE770BD00BF040100203D
:10E460004121000498350100005006403437010076
:10E4700008B5FFF7E5FE08BD08B5164B986820F013
:10E4800080700A78120602F0807202439A609868DF
:10E4900020F040500A7A120702F0405202439A607C
:10E4A0004A685A609A6822F04042487A42EA80728A
:10E4B0009A609B6823F080638A7A002A14BF4FF029
:10E4C00080620022134303488360C96800F030F87B
:10E4D000002008BD0020034038B504460D4604481E
:10E4E00000F008F829462046FFF7C6FF38BD00BFF8
:10E4F00000200340836843F080738360836823F0C7
:10E5000040438360836823F040538360836823F033
:10E510008063836041F221034360836843F00073AA
:10E52000836000230360836823F000738360704777
:10E53000836843F0007383600160836823F0007395
:10E540008360704708B5084B1B6853F8203000F013
:10E550000F00064A1077D07723B15A6812B1197BA1
:10E560009868904708BD00BF180100200080004057
:10E5700038B5054600F00F0400222146094800F096
:10E5800025F8094B1B6853F8253053B1054A147719
:10E59000D477947701221A735A6812B1197B98685C
:10E5A000904738BD008000401801002008B50022C7
:10E5B00000F00F01024800F009F8002008BD00BF7C
:10E5C0000080004000487047008000400AB9817612
:10E5D0007047C176704708B50020FFF7B3FF08BD4C
:10E5E00008B50120FFF7AEFF08BD08B50220FFF710
:10E5F000A9FF08BD08B50320FFF7A4FF08BD08B5B3
:10E600000420FFF79FFF08BD08B50520FFF79AFF1C
:10E6100008BD08B50620FFF795FF08BD08B507201F
:10E62000FFF790FF08BD08B50820FFF78BFF08BD76
:10E6300008B50920FFF786FF08BD08B50A20FFF7D7
:10E6400081FF08BD08B50B20FFF77CFF08BD08B5AA
:10E650000C20FFF777FF08BD08B50D20FFF772FF0C
:10E6600008BD08B50E20FFF76DFF08BD08B50F20E7
:10E67000FFF768FF08BD38B50020FFF7A3FFC56AA4
:10E68000002404E06D080134E4B2102C06D015F02B
:10E69000010FF7D02046FFF76BFFF3E738BD00000E
:10E6A00003680B6043684B6083688B60C3680B61D1
:10E6B00003698B61324BDB6CC3F30333072B3ED012
:10E6C0000DD90B2B47D01DD90D2B4CD047D30E2B7A
:10E6D0004DD00F2B4FD14FF48033CB6008E0032B8C
:10E6E0001ED009D8012B13D016D84FF48033CB603D
:10E6F00000234B6100207047052B18D01BD8002346
:10E70000CB6010E0092B1ED021D80023CB600AE09B
:10E710004FF0FF33CB60EBE74FF0FF33CB60E7E721
:10E720004FF40043CB604FF480534B61E2E74FF06E
:10E73000FF33CB60DCE74FF0FF33CB60D8E74FF01F
:10E74000FF33CB60D4E74FF0FF33CB60D0E74FF41B
:10E750008043CB60E7E74FF40043CB60E3E74FF43F
:10E760008033CB60C4E74FF0FF33CB60C0E74FF09E
:10E77000FF33CB60BCE7CB68B3F5803FD3D3B7E7BB
:10E78000008004402DE9F0470646174684688C4215
:10E7900014D8C3682344994210D201F500010C1B20
:10E7A0004FF4006808F1FF333B4214BF0120002002
:10E7B000194D4FF0700A4FF009091CE03468A1426E
:10E7C00024D373682344994223D20C1B4FF48058FE
:10E7D000E8E785F800A085F80790C4F30743AB711C
:10E7E000C4F307236B71E3B22B71304605F03CF89C
:10E7F000A7EB080744443FB120B92B7813F0800FF2
:10E80000E7D10220BDE8F087BDE8F0870120BDE830
:10E81000F0870120BDE8F0870000024038B5846829
:10E820008C420DD8C5682544A94209D201F50001E2
:10E83000091B144C247814F0800F0AD1022038BD33
:10E840000468A1421AD345682544A94218D2091B7D
:10E85000EFE70C4C702525700125E571C1F30745E4
:10E86000A571C1F307256571C9B22171110AE17261
:10E87000D2B2A272637204F0F7FF38BD012038BD36
:10E88000012038BD0000024012F0070F4ED12DE9E3
:10E89000F04781460C46154682688A4208D8C1680E
:10E8A00011448C4204D204F50004A41A00200CE0A8
:10E8B000D9F80020944207D3D9F8041011448C42AF
:10E8C00013D2A41A002000E001205E1EDFF86C8045
:10E8D0004FF0700A174F5DB350BB98F8003013F03B
:10E8E000800F04D10220BDE8F0870120EDE788F811
:10E8F00000A0072388F80730C4F3074388F80630E0
:10E90000C4F3072388F80530E3B288F804303346AF
:10E91000094A13F8011F02F8011FBA42F9D148460B
:10E9200004F0A2FF0834083D0836D4E70120704700
:10E93000BDE8F0870F0002400700024000000240DF
:10E940002DE9F04F83B001939DF8349012F0030F3E
:10E9500004D00123184603B0BDE8F08F06461546E3
:10E960008768B94219D3C3683B44994215D201F56F
:10E970000004E41B4FF0000A5346DFF8A880DFF8DC
:10E98000A8B035B12BB998F8003013F0800F0DD135
:10E9900002230C9AC2F800A0DCE73768B94235D3ED
:10E9A00073683B44994235D2CC1BE3E7702388F867
:10E9B0000030022388F80730C4F3074388F8063094
:10E9C000C4F3072388F80530E3B288F8043088F8E8
:10E9D0000B90019B5A1E114B12F8011F03F8011FE7
:10E9E0005B45F9D1304604F03FFF034640B10C4A85
:10E9F000944286BFA7F5000AA24407EB040AC0E7C9
:10EA0000043D019A043201920434BAE74FF0000A3F
:10EA10000123BEE74FF0000A0123BAE70B000240D2
:10EA2000FFFF7F00000002400F0002402DE9F0418F
:10EA300086B00C4616469846244B53F82050244B7B
:10EA400053F82070384600F09DFD844205D34FF402
:10EA50004073184606B0BDE8F08105EBC4056B793C
:10EA60000BB10223F5E71F2C04D804F01F02012389
:10EA700093403B6302236B719DF83430AB71F37AA2
:10EA8000EB717368049333788DF80C30337A8DF81A
:10EA90001430737A8DF81530B37A8DF81630F37A16
:10EAA0008BB11C230293002301930C9B00934346DC
:10EAB00002AA2146384600F059FF03460028C8D074
:10EAC00000226A71C5E70C230293ECE71C010020C9
:10EAD000883701002DE9F8430D46174698461B4B31
:10EAE00053F820401A4B53F82060204600F04AFDAE
:10EAF000854204D34FF440731846BDE8F883236879
:10EB000013F0005F09D0636BC3F303635B0007334B
:10EB10009D4202D84FF44073EEE706EBC50999F821
:10EB200005300BB10223E7E7012289F8052046F8FA
:10EB3000357089F806802946204600F0B9FD034665
:10EB40000028D9D0002289F80520D5E788370100B0
:10EB50001C01002070B50646284B53F8204094F85D
:10EB600011316BB36379DBB2032B15D0256894F8B0
:10EB70001001FFF71BFD2B6813F4001F02D16A6818
:10EB8000920C6A60C3F3034385F84830AB681BBA44
:10EB9000AB60EB681BBAEB60002323606379DBB2E8
:10EBA000032B08D000236371D4F800511DB194F8F1
:10EBB0001131012B17D0A3790BB16379CBB170BDA3
:10EBC0000F4B53F8205000220521284600F070FD1D
:10EBD00000220621284600F06BFD0022072128466E
:10EBE00000F066FDD8E72346002208213046A847FA
:10EBF000E1E7201D01F086FBE1E700BF1C010020DA
:10EC00008837010038B50C460A4B53F820500022D3
:10EC1000094B53F8200000F04BFDE1006C18A3797C
:10EC200013B90023637138BD081D284401F06AFB45
:10EC3000F7E700BF1C01002088370100F8B50E4639
:10EC4000284B53F82040276807F40067256815F023
:10EC500080751FD017B3236D03F000432365216D2A
:10EC600033689B029BB27268520102F478721343BC
:10EC7000B26802F01F021343F0681B4A02EA4052D6
:10EC800013433269120402F4F81213430B43236551
:10EC90001DB3F8BD204600F057FDDBE7636823F0A5
:10ECA00007031B041B0C63606168336803F00703F0
:10ECB000F26843EA0263B268120402F4E0221343EA
:10ECC0007268D20402F4601213433269920502F4AE
:10ECD000400213430B436360DAE7204600F027FD50
:10ECE000D7E700BF883701000000E07F2DE9F0473B
:10ECF000814688461746AC4B53F820402368002BCA
:10ED000005DB204600F020FD204600F066FC62682E
:10ED10007B7A5B0303F4005322F4005213436360D5
:10ED2000204600F045FC204600F00EFD204600F095
:10ED300061FC9E4B13F8093043B3236823F400634E
:10ED40003A7A002A40F027812360226D22F00042A7
:10ED5000002313432365D4F8003C23F41F43C4F875
:10ED6000003C23683A7AC3F3C0239A4203D00122BD
:10ED70001046BDE8F087636B23F48053002A14BF6C
:10ED80004FF4805200221343636303E03B7A002B6D
:10ED900040F0FB80BB79022B03D0236843F400339F
:10EDA00023607B79002B40F0B38097F83430012B3F
:10EDB00000F0B78097F834301BB9236823F4004380
:10EDC0002360F979204600F09BFD3968204600F069
:10EDD00045FF02460028CBD1236813F4006F00F0F2
:10EDE000A980FB6838697E69BD69FA69216D01F007
:10EDF00000412165216D9B029BB2400100F47870B7
:10EE0000034306F01F063343694800EA45552B4388
:10EE1000120402F4F81213430B4323653B6A786A29
:10EE2000BE6AFD6A3A6BD4F804CC62490CEA01016F
:10EE3000C4F8041CD4F8041C9B0203F4F8434001FA
:10EE4000C0B2034306F0070633435B4800EA0555AA
:10EE50002B43120402F4E02213430B43C4F8043C96
:10EE6000B979204600F001FDBB79032B02D0204682
:10EE700000F05DFC514B13F9090010F1800F01D037
:10EE800000F092FF4E4B13F9090000F08DFF4D4B3F
:10EE900013F9090000F088FF4B4B13F9090010F13A
:10EEA000800F01D000F080FF474B4B4493F90300E3
:10EEB00010F1800F01D000F077FF08F1040A5446EA
:10EEC00000252E463146204601F02FFA0246002842
:10EED0004FD1A67044F8046C08EBC5035E71013590
:10EEE0000834202DEED197F8343088F8113197F896
:10EEF000353088F810310023C8F80031C8F80431E3
:10EF0000C8F80831C8F80C31304B43F829802FE796
:10EF10003979204600F0A2FB024600283FF445AFB5
:10EF200026E7236813F0005F31D0236843F40043E1
:10EF300023603FE7FB6838697D69BE69FA696168EB
:10EF400021F007010904090C6160616803F00703FF
:10EF500043EA06632D0405F4E0252B43C00400F4C6
:10EF600060100343920502F4400213430B436360B5
:10EF700076E775B10024504601F0E1F901340AF159
:10EF8000080AAC42F7D10122F2E60122F0E60122A2
:10EF9000EEE60122ECE643F400632360226D22F0EA
:10EFA00000424FF00043D4E6883701008437010067
:10EFB0000000E07F188308C00000F03FA437010084
:10EFC00098370100943701009C3701001C01002094
:10EFD000F0B587B00E4615461F46134B53F8204038
:10EFE000204600F076FC18B14FF4407007B0F0BD39
:10EFF0006B6804932B788DF80C30AB7A8DF8163053
:10F000002B7A8DF814306B7A8DF8153006AA082308
:10F0100042F8103D0023019300933B4631462046C1
:10F0200000F0A4FCE2E700BF883701002DE9F041C1
:10F0300082B004460E4617469846104B53F82050AF
:10F04000284600F046FC28B14FF44073184602B041
:10F05000BDE8F08100230193089B009343463A46A4
:10F0600031462046FFF7E2FC03460028EED101229C
:10F070003146284600F01CFB0346E7E788370100CD
:10F08000F0B585B00D4616461F46224B53F820407A
:10F09000204600F01EFC20B14FF44073184605B026
:10F0A000F0BD7368029333788DF80430337A8DF8AD
:10F0B0000C3005F01F03012202FA03F61F2D98BF42
:10F0C000266304AA0F2342F8103D3B4629462046FA
:10F0D00000F014FD03460028E0D104AA002342F802
:10F0E000103D3B462946204600F008FD0346002817
:10F0F000D4D104AA042342F8103D3B4629462046B9
:10F1000000F0FCFC03460028C8D11F2DC6D826639A
:10F11000C4E700BF8837010070B504460D461646A7
:10F12000074B53F8200000F0D4FB10B14FF44070AF
:10F1300070BD0023324629462046FFF7CBFC70BD48
:10F1400088370100F8B50746304B53F82040304B64
:10F1500053F82060D6B1D6F80831BBB100224FF485
:10F160008041204600F0B6FA00224FF4806120462C
:10F1700000F0B0FA00224FF40061204600F0AAFA35
:10F1800000224FF40041204600F0A4FA214BD8574A
:10F1900010F1800F01D000F013FE1F4BD85700F084
:10F1A0000FFE1E4BD85700F00BFE1D4BD85710F129
:10F1B000800F01D000F004FE194B3B4493F903008B
:10F1C00010F1800F01D000F0FBFD2368002B05DB60
:10F1D000204600F0B9FA204600F0FFF99EB1341D38
:10F1E00006F582760025204601F0A9F8002818BF10
:10F1F00001250834B442F6D11DB90022044B43F86E
:10F2000027202846F8BD0025F7E700BF8837010012
:10F210001C010020A4370100983701009437010039
:10F220009C37010010B5074B53F82040064B53F8AC
:10F230002020D2F808310BB10A219847204600F06F
:10F24000DFFA10BD883701001C0100202DE9F043D2
:10F2500095B0904B53F82050AB6A2A6B134003F0E3
:10F26000010300245BB90134202C25D0AB6A2A6B42
:10F27000134004F01F02D34003F00103F2E7DBB1B7
:10F280000646854B53F820702B6813F0005F01D0C1
:10F29000072C14D94FEAC40907EB090898F8053080
:10F2A000DBB2012B00F08F8007EBC4035B79DBB28C
:10F2B000022B55D01F2C1ED915B0BDE8F083052CAC
:10F2C0000FD0062C73D0072CEED180232B63D7F8F8
:10F2D0000081B8F1000F08D03B4600220321C0474F
:10F2E00003E07B79DBB2012B20D007EBC4035B7911
:10F2F000DBB2022B34D0AB6A296B04F01F020B4047
:10F30000D34013F0010FD7D02B6813F0005F00F04B
:10F31000B280072C00F2AF807B79002BCCD11F2C60
:10F32000CAD8012303FA02F22A63C5E739682846DE
:10F3300000F070FA20232B6300237B71D7F8008143
:10F34000B8F1000F04D03B46002201213046C047EF
:10F350007B7943B307EBC4035B79DBB2022BCAD1E1
:10F3600007EBC40898F80730002B6CD11F2C04D889
:10F3700004F01F02012393402B63002388F805301B
:10F38000D7F80091B9F1000F04D03B462246042182
:10F390003046C84798F80530002B8BD121463046BF
:10F3A000FFF730FC86E73046FFF7D4FBD2E7402377
:10F3B0002B63D7F80081B8F1000F96D03B460022AE
:10F3C0000221C04791E72146284600F0FBFB57F891
:10F3D00034202146284600F0FAFB1F2C04D804F004
:10F3E0001F02012393402B632B6813F0005F05D0AD
:10F3F00057F80930DB7813F00F0F17D0AB680023F4
:10F4000088F80530D7F80091B9F1000F04D03B46D9
:10F41000224600213046C84798F80530002B7FF47B
:10F4200043AF21463046FFF7EDFB3DE72146284636
:10F4300000F083FA036823F070630360036843F00D
:10F4400080630360DBE72146284600F0BBFB01AA8E
:10F450002146284600F0BBFBAB689DF8073003F05F
:10F460000F03042B89D11F2C87D804F01F0201231E
:10F4700093402B6381E707EBC4077B79002B7FF474
:10F480001BAF1F2C3FF618AF012303FA02F22A63C9
:10F4900012E700BF883701001C01002010B5074BA0
:10F4A00053F82040064B53F82020D2F808310BB116
:10F4B0000A219847204600F097F910BD88370100CF
:10F4C0001C010020F8B5184B53F82040236813F4B2
:10F4D000804F28D00546154B53F82060D4F8083BE0
:10F4E00013F4003F0CD0D4F8083B43F40033C4F8C5
:10F4F000083BD6F800711FB1334600220521B847FA
:10F50000D4F8083B13F4803F0DD0D4F8083B43F403
:10F510008033C4F8083BD6F8004124B133460022BA
:10F5200006212846A047F8BD883701001C010020AD
:10F53000034B53F82030C3F80011C3F8042170477F
:10F540001C01002008281BD90C2812D006D80A2834
:10F550000BD00CD8092812D10C2070470E280CD0E3
:10F5600009D30F280BD1402070471020704714207A
:10F5700070471820704720207047302070470020C7
:10F58000704700000346084A904209D002F58052B5
:10F59000904207D00020054A934208BF10207047D0
:10F5A0002020F8E7102070470040024000B00240E1
:10F5B000036813F4801F0FD0036823F00043036037
:10F5C000036823F080430360036823F080530360E3
:10F5D000036813F0006FFBD170470368002B07DB53
:10F5E000036843F000430360036813F4801FFBD0FB
:10F5F0007047000070B50446036843F00073036071
:10F60000236813F0007FFBD1236843F48053236009
:10F610002046FFF7B7FF04F18001860007D00B46B4
:10F6200001EB8601002543F8045B8B42FBD104F516
:10F63000086230B113463244002143F8041B9A4259
:10F64000FBD14FF0FF3323616361A3610022A2620B
:10F650002363014B236270BD06003B0038B50446AE
:10F660000D46FFF78FFF0146236803F40063002B6C
:10F6700014BF012000201AD1236843F000532360F7
:10F68000626B2B0603F0706322F0706213436363B6
:10F690004FF0FF33A36489B249B100236FF0604596
:10F6A00003F5087244F8225001338B42F8D138BD7B
:10F6B0001F2909D801F01F01012303FA01F12AB91A
:10F6C000836A23EA0101816200207047836A19433B
:10F6D0008162F9E7B2B1B1F5806F09D0B1F5006F81
:10F6E00006D0B1F5804F08D0436819434160704798
:10F6F000036843F400130360F3E7436B43F00043F4
:10F700004363F1E7436823EA01034360B1F5804FA7
:10F7100008D0436813F4406F03D1036823F4001347
:10F7200003607047436B23F000434363F1E70368D2
:10F7300023F080530360036823F080430360036871
:10F7400013F0807FFBD1704710B4036843F080430F
:10F750000360036843F0805303600368002B15DBEC
:10F76000012400238360036813F4006F14D003683E
:10F7700013F0807F08BF40F2D92118D18268036856
:10F7800013F0807F13D18A42F8D910E0036823F088
:10F79000004303600024E4E7036813F0807F06D190
:10F7A0008268036813F0807F01D1B32AF8D9036817
:10F7B00013F0807F0BD1816A0268036843F0007305
:10F7C0000360036813F0007FFBD1816202603CB9E3
:10F7D000036843F000430360036813F4801FFBD009
:10F7E0005DF8044B70470000026A034B134013B1ED
:10F7F000024B0362036A704706003B0002003000C0
:10F80000026A034B134013B1014B0362036A704752
:10F8100004000B00F8B507460E4600F1880401F11C
:10F820000805D0F88000C0F30340FFF78BFE86F890
:10F830004800D7F88030336013F4001F10D0D7F899
:10F84000843073600646002348B1990854F821209B
:10F8500012BA45F821200433B342F6D3F8BDF8BDFF
:10F86000D7F884309B0C7360ECE708B5022923D0ED
:10F8700008D8A1B1012904D1436843F008034360CB
:10F8800008BD08BD032907D0042904D1036843F04B
:10F890000043036008BD08BDFFF756FF08BD0368BD
:10F8A00023F400030360436823F0080343604368C4
:10F8B00023F48053436008BD436843F4805343609E
:10F8C000436823F008034360036823F400330360B4
:10F8D00008BD036803F07F038B420DD3036813F068
:10F8E000005F0BD0406BC0F30360400007308142E3
:10F8F0008CBF002001207047012070470020704716
:10F90000036813F4006F07D0D0F8003C23F44033B1
:10F9100043EA0141C0F8001C7047036813F4006F0C
:10F9200009D0D0F8000CC0F301400330012303FAE2
:10F9300000F0C0B270470820FBE738B504460D461A
:10F94000FFF7EBFF0830C0B24FF40073B3FBF0F3E6
:10F95000DBB2B5FBF3F203FB12538008D20100FBCC
:10F960000320203004EB800038BD00002DE9F04773
:10F9700007468A4614469846089D9DF82490FFF74E
:10F98000DCFF3B6803F07F039A4500F29A8006464D
:10F990003B6813F0005F40F0A1803B6813F4006FF8
:10F9A00007D0A37B2BB1D7F8003C43F00043C7F846
:10F9B000003CD4F808A05FFA8AF3402B9ABF4D4A66
:10F9C000D05CFF20074665B3FFF7BCFD3AF00303A8
:10F9D0000DD0002399088A00083255F8211009BA81
:10F9E000B1500433A26822F003029A42F2D806F121
:10F9F0000801A26893420AD21D4483F0030215F85D
:10FA000001CB01F802C00133A2689A42F5D805463D
:10FA1000824206D282F00303607BC8540132AA42BC
:10FA2000F8D10023336073602379012B32D0002397
:10FA300022796AB9736823F0FF5323F4E0137360EB
:10FA400072682D4B03EA884848EA0202726000237C
:10FA50003F0407F470271F4323680F2B2ED01C2B65
:10FA600024D0B9F1000F01D047F4801727F0706758
:10FA7000227BF2B11B0603F0706343F000431F4387
:10FA8000A37B0BB147F0804733681F4337600020EA
:10FA9000BDE8F087736803F060437360726828F014
:10FAA0006043134373604FF40013C1E747F48017BA
:10FAB000DCE71B0603F070631F43E1E70020BDE8AD
:10FAC000F0873B6813F0005F04D07B6B4FF440700D
:10FAD000BDE8F0874FF44070BDE8F0877B6BC3F35F
:10FAE00003635B0007339A453FF657AF4FF440700E
:10FAF000BDE8F087A83701000000FC1FF8B50446F8
:10FB00000E4615461F46FFF718FF236803F07F03D4
:10FB10009E423FD8236813F0005F46D10023036064
:10FB200043602B79012B21D02B797BB9036823F417
:10FB3000C0030360436823F0FF5323F4E0134360E2
:10FB400042681F4B03EA8743134343602B680F2B24
:10FB50001ED0036823F07063036002682B681B06E5
:10FB600003F07063134303600020F8BD036843F49F
:10FB700000130360036823F480030360436803F009
:10FB800060434360426827F0604313434360CBE720
:10FB90000020F8BD236813F0005F03D0636B4FF4BF
:10FBA0004070F8BD4FF44070F8BD636BC3F303635E
:10FBB0005B0007339E42B1D84FF44070F8BD00BFE0
:10FBC0000000FC1F08B5FFF7B8FE036808BD2DE96B
:10FBD000F04180461446FFF7B0FE054604F10807E1
:10FBE0000068C0F30340FFF7ADFC06464046FFF750
:10FBF00094FE864229D884F848602B68236013F469
:10FC0000001F27D06B68636036F0030008BF002335
:10FC10000BD0002399088A000832AA5812BA47F874
:10FC200021200433DBB28342F4D39E420BD9D91D89
:10FC3000214483F003020832AA5C01F8012F01334A
:10FC4000DBB29E42F5D1BDE8F0814046FFF765FE8C
:10FC50000646D0E76B689B0C6360D5E72DE9F84357
:10FC600006460F46FFF759FE04467D1E29463046DC
:10FC7000FFF763FE2044083006F52073984203D94D
:10FC80004FF44070BDE8F883A0463046FFF77AFC99
:10FC9000874206D94FF44070BDE8F8830020BDE8E4
:10FCA000F883336823F07F0305F07F051D4335603B
:10FCB000316811F000511CD1002FEFD000252C46E7
:10FCC00008F108093046FFF738FE04604460B8F1D7
:10FCD000000F06D000F10803484403F8014B984296
:10FCE000FBD10135EDB22946AF42EBD80020BDE88B
:10FCF000F8830020BDE8F88308B50020FFF792FAEA
:10FD000008BD08B50020FFF7C9FB08BD08B50020F5
:10FD1000FFF7D8FB08BD08B50020FFF797FA08BD2C
:10FD200008B50020FFF792FA08BD08B50120FFF7DB
:10FD300079FA08BD08B50120FFF7B0FB08BD08B58A
:10FD40000120FFF783FA08BD08B50220FFF76AFA21
:10FD500008BD08B50220FFF7A1FB08BD08B50220C9
:10FD6000FFF774FA08BD000010B40B4B0B4C9C421B
:10FD70000DD02AB100F11003084C54F82330136061
:10FD80001030064B43F820105DF8044B7047044BCD
:10FD9000044C9C42F8D1ECE700C000000080FF1F3B
:10FDA000D03D010078380100420900F01F00012316
:10FDB00003FA00F0014B43F82200704700E100E035
:10FDC000430900F01F00012202FA00F02033024A2A
:10FDD00042F82300704700BF00E100E0054B1B68BC
:10FDE000002B04DD013B034A1360002B00DD70474C
:10FDF00062B6FCE72801002072B6024A136801339C
:10FE0000136070472801002070B582B006460C468A
:10FE1000264D05EB80014520FEF72AFB002002A9B4
:10FE200041F8040DFEF724FB55F82620019B03EB57
:10FE30005203B3FBF2F213461D48816841F0020100
:10FE400081602AB1013B00BF00BF00BF002BF9D188
:10FE500017498B6823F002038B601346886840F0D3
:10FE6000010088602AB1013B00BF00BF00BF002B2A
:10FE7000F9D121780E4B9A6822F008029A609A68AC
:10FE8000002914BF082300231A43094B9A606178A4
:10FE90009A6822F004029A609B68002914BF042229
:10FEA00000221343024A936002B070BD2C0100206F
:10FEB00000700340024A936823F001039360704787
:10FEC00000700340024A536919435161704700BFF3
:10FED00000700340F8B506460C461746244D05EB66
:10FEE00080014520FEF7C4FA55F82600214A002378
:10FEF000A0FB0701FCF7B2FA10F1FF3641F1FF3722
:10FF0000230103F1804303F55C339B6AC3F3810350
:10FF1000012B20D0022B24D1012F08BF002E12D399
:10FF20000120F8BD144A0023BB4208BFB24210D3DF
:10FF3000002F08BFB6F5803F05D3B0F101100604CD
:10FF40004FF6FF721643023424010C4B1E51002061
:10FF5000F8BD0120F8BD012F08BF002EE2D301201B
:10FF6000F8BD012F08BF002EEDD30120F8BD00BF62
:10FF70002C01002040420F00FEFF010000700340F2
:10FF800030B583B030238DF8043031238DF805303F
:10FF900032238DF8063033238DF807300D4659B9DA
:10FFA000D37C002B40F0AC80564B996A21F00201C3
:10FFB0009962996A00230EE0D47C0B0103F180431F
:10FFC00003F55C33996A21F002019962996A002C69
:10FFD00014BF02230023144619432B0103F180436D
:10FFE00003F55C3399621278996A21F00C019962E9
:10FFF000996A920002F00C020A439A626378012B1C
:020000021000EC
:1000000068D06168AB1C1B013E4AD150227A2B019B
:1000100003F1804303F55C33996A21F4000199628E
:10002000996AD20502F400020A439A62E268996A68
:1000300021F070619962996A120602F070620A43B7
:100040009A62217C9A6A22F480229A629A6A002932
:1000500014BF4FF4802300231A432B0103F1804384
:1000600003F55C339A62617C9A6A22F400329A62E8
:100070009A6A002914BF4FF4003300231A432B015E
:1000800003F1804303F55C339A62A17C9A6A22F4FF
:1000900080329A629A6A002914BF4FF48033002399
:1000A0001A432B0103F1804303F55C339A62237DED
:1000B000C3B914490B690122AA4023EA02030B6168
:1000C00002AB1D4415F9040CFFF77AFE0023184615
:1000D00003B030BD62682946FFF7FCFE03460028E6
:1000E000F5D193E7074A11690123AB400B43136134
:1000F00002AB1D4415F9040CFFF756FE0023E6E79A
:100100000123E4E700700340074B8A1C03EB021253
:10011000506803EB01139B6AC3F38103012B04BFF7
:1001200083B203EB1040704700700340024A13692A
:1001300023EA01011161704700700340014BD9604F
:10014000DB6870470070034060B170B506460C462E
:100150000025204600F044F801351834AE42F8D1AD
:10016000002070BD0020704741617047816070477A
:10017000C1607047184B984204D0184B98421ED06B
:10018000FF2070470D2911D007D90F2914D010D3A3
:1001900010291FD102F00D00704721B1012919D19A
:1001A00042F00200704742F00100704742F0040044
:1001B000704742F00800704702F00E00704719B116
:1001C000012904D0FF20704702F00B00704702F0B5
:1001D00007007047FF20704700A0044000B00440B3
:1001E00038B504460068616850F82120237A012B55
:1001F0003FD0002B3AD0022B40D0657A2D0105F07C
:10020000100322F050051D43A37A9B0103F0400325
:100210002B4323F4E065E37A082B32D01B0203F46E
:10022000E0632B43227BD20392B223F4782313435F
:10023000627B120402F470221343A27B0AB143F0E2
:1002400080732268616842F821302168D1F8C020AB
:1002500060680123834022EA0302E37B8340134367
:10026000C1F8C030E37A012B21D038BD22F0020260
:10027000C3E722F0010242F00202BEE742F00302AD
:10028000BBE71B4B5A6802F00F02FFF773FFFF2812
:100290000BD0174B5A6822F00F025A605A6800F0D0
:1002A0000F00104358600023B8E70023B6E7216928
:1002B0004B69227D22B1012A0AD0012A05D10BE027
:1002C000616801228A4023EA020322695361CCE774
:1002D0006068012282401343656808680122AA40D1
:1002E00020EA0200627DAA4002430A60EDE700BFF7
:1002F00000800440024A136801331360704700BF56
:100300003001002010B50446FFF776FD2378DBB2FC
:10031000FF2B08D023780133DBB223700024FFF7D2
:100320005DFD204610BD0124F9E738B504460D46B1
:10033000FFF762FD2570FFF751FD002038BD00205A
:100340007047704770B504460D46FCF7E5FD06465C
:10035000FCF7E2FD80F0450000EA56202070FCF733
:10036000DBFD0646FCF7D8FD000E00EA164000F063
:10037000450060702278034B1A70587002232B706E
:10038000002070BD3401002010B4094B1A78597850
:1003900053180478DBB29C4203D001205DF8044B73
:1003A0007047521A4078D2B2801A18BF0120F5E780
:1003B0003401002010B500210B4B19700B4B197044
:1003C0000B4B196059600B4B196059600A4C216046
:1003D0006160A160E16021612022084803F056F8C5
:1003E00001232374E37310BD8001002081010020EC
:1003F00050010020580100203C0100206001002035
:1004000010B5664B9B79664AD25C1309012B27D045
:100410003BB1022B5BD0032B00F08580FFF7CAFFB6
:1004200010BD604B1B78002BFAD15F4C204602F0C8
:10043000DDFD5A4B9B795A4AD25C02F00F0291B211
:100440002181C3F107039A4204DC19B10722554BFD
:100450001A7010BD544802F0D1FDFFF7ABFF10BD7C
:10046000504B1B78002BDBD14C4B1B7F03EB430322
:100470004E4A02EB83035B79012BD1D04A4C2046D4
:1004800002F0B4FD454B9B794549CA5C120202F467
:100490007062194449780A432281C3F108039A42E1
:1004A0000DDBA389934203D206223E4B1A7010BD86
:1004B00008223C4B1A70394B1A7F5A7710BD3A4BC1
:1004C0009B899342F0D3384802F098FD10BD354B1C
:1004D0001B78092BA4D131494B7F097F99429FD1C9
:1004E00003EB4303314901EB83035B79012B97D085
:1004F00002F00F02294B1A705B780133594203F066
:100500000F0301F00F0158BF4B429A4205D0264815
:1005100002F074FDFFF74EFF10BD204B5A700A2207
:10052000204B1A7010BD1F4B1B78032B7FF478AF44
:100530001A494B7F097F99427FF472AF03EB430363
:100540001A4901EB83035B79012B3FF469AF02F099
:100550000F02124B1A71022A19D8012A03D00B225A
:10056000104B1A7010BD1A465B790133DBB2537120
:100570000F4A92789A4203D903220A4B1A7010BD8F
:10058000094B187C02F054FDFFF714FF10BD064B19
:10059000187C02F04DFDFFF70DFF10BD600100203B
:1005A00050010020800100203C010020F8370100AC
:1005B000EC3701002DE9F04F83B00446254A13467D
:1005C0000868496803C3244B93F81C9093F806E02D
:1005D00092F800B0214A002398461F464FF0010CC4
:1005E0009A46CDF804C008E092F80090E046D6465E
:1005F000019F01330C32052B1DD0DEB21D46517810
:10060000A142F6D1D1780029EED011795945F0D127
:10061000114B05EB4505114A12F825201A770122E6
:100620009A71042E02D90C4B1B7F83B1FFF7E8FEB1
:1006300003B0BDE8F08F37B9B8F1000FF3D0064B27
:1006400083F806E0EFE7044B83F81C90F4E7FFF72C
:10065000B1FEEDE75001002060010020F8370100F5
:1006600008B5274B1B78042B22D00ED8012B17D0AE
:10067000022B09D10822234BD978234802F006FF28
:100680000322224B1A7008BD08BD052B33D0062B60
:1006900005D11F4802F0B2FCFFF78CFE08BD08BD73
:1006A00000201B4B187402F0C3FCFFF783FE08BD4B
:1006B0000822144BD978144802F0E8FE154B9A89A9
:1006C0001B899A420BD0134B9B7883B1114A5289F4
:1006D0009A420CBF032204220C4B1A7008BD002062
:1006E0000B4B187402F0A4FCFFF764FE08BD042253
:1006F000064B1A7008BD0922044B1A7008BD00BFD2
:1007000081010020EC370100500100208001002011
:100710003C010020600100200C4B1A770C4B186044
:10072000598102EB42020B4B03EB8202D3784BB1AF
:100730000122064B9A7107298CBF02220122064B27
:100740001A7070470022014B9A71F4E76001002093
:100750003C010020F8370100800100200638084BDA
:1007600083FB00231A18C317C3EBA2039AB2C3EB8F
:10077000C303984218BF0132024B1A81704700BF71
:1007800093244992600100202DE9F0419A4B5A6967
:1007900001325A61994B1B78062B00F09A8100F2C6
:1007A0008780032B00F0088146D8012B00F0CB8016
:1007B000022B3FD1DFF85882B8F80A00FFF7CEFFCE
:1007C0008D4B1F7F5F778E4C8E4D7E00F21905EBAF
:1007D0008202127922709A79B8F80A10C1F30323C1
:1007E00043F01003A354A3185970901CC2F10602E1
:1007F000D8F80010204402F03BFE3E4405EB86058D
:100800002146A878FBF7E0FF002840F0DF807A4916
:100810008B79C3F10602D8F800301344C8F80030D1
:10082000764B1878784A107001220A7003221A70E9
:10083000BDE8F081BDE8F081042B00F0EF80052BCE
:1008400034D16D49087F6E4A00EB40046D4B03EBD9
:1008500084031B7913708B793024D454D4186B4DD6
:100860002E78667052788A706A78A270DA1C072A2D
:1008700008DCE978624A03331344083203F8011BA9
:100880009342FBD100EB40005E4B03EB80005C49E0
:100890008078FBF799FF002840F09880574B197833
:1008A000594A117000221A70BDE8F081BDE8F0814C
:1008B000092B00F043811ED8072B00F0F580082B90
:1008C00017D14D4DAB79524CC3F106025149194431
:1008D000606802F0CDFDAB79C3F106026368134492
:1008E00063602089FFF73AFF0522444B1A70BDE888
:1008F000F081BDE8F0810A2B00F02D810B2B20D177
:100900003D4A002393619179434B5B5C03F00F03F5
:100910001371022B67D0404B0B44597891709B7830
:1009200083F08002702A01D9F92B59D97F22324BEA
:10093000DA700022304B5A610422304B1A70BDE845
:10094000F081BDE8F0812C4A157F2D4805EB45016B
:100950002C4B03EB81031B79037092792C4B9C7A0F
:100960008454561CC2F107021968304402F080FD1D
:10097000A019C0B207280DD8244BD978204A431EAD
:100980001344C0F1070450FA84F0024403F8011F35
:100990009342FBD105EB45051A4B03EB850518493E
:1009A000A878FBF711FF88B9144B1978164A117013
:1009B00000221A70BDE8F0810F4A00235381936929
:1009C00001339361114A5268934201D2BDE8F0812C
:1009D0000F4B187C02F02CFBFFF7ECFCBDE8F0811C
:1009E000054AD370A5E70A4B187C02F021FBFFF7FC
:1009F000E1FCBDE8F08100BF600100208001002023
:100A000058010020F837010081010020EC37010077
:100A10003C01002052010020500100206D4BDB788A
:100A20009A42D3D36B4B00225A611F7F6A4D6B4CA5
:100A30007E00F21904EB820212792A709A791B78EF
:100A400043F02003AB54501CC2F10702644B1968F9
:100A5000284402F00DFD3E4404EB86042946A078AC
:100A6000FBF7B2FE0028B1D15D485A4A9379C3F131
:100A7000070103680B4403605A4801785A4B197008
:100A800013780133594203F00F0301F00F0158BFEF
:100A90004B421370938901339381538901335381FE
:100AA00000230370BDE8F0814A4DAB794C4CC3F193
:100AB00007024E491944606802F0DAFC2B7FA373E9
:100AC0000023E373204602F099FAFFF773FCBDE8B8
:100AD000F0814049087F404A00EB40043F4B03EB64
:100AE00084031B7913708B793224D454D418404D6D
:100AF0002E78667052788A706A78A270DA1C072A9B
:100B000008DCE978344A03331344083203F8011B44
:100B10009342FBD100EB4000304B03EB80002E49A9
:100B20008078FBF751FE00287FF450AF2D4B1978E9
:100B30002D4A117000221A70BDE8F081254A936990
:100B4000013393612A4A92689342FFF43FAFFFF763
:100B500031FCBDE8F0811F4C0023A361A379204D37
:100B6000C3F1070221491944686802F081FCA379A6
:100B7000C3F107026B6813446B60E38901339BB2D6
:100B8000E381228A013292B222822189994209D0DC
:100B9000104B9B788BB19BB29A4213D00922114B18
:100BA0001A7013E72846237FAB730023EB7302F020
:100BB00025FAFFF7FFFBBDE8F0810922094B1A7007
:100BC000BDE8F0810022034B1A820522054B1A7002
:100BD000BDE8F0816001002058010020F8370100D5
:100BE0003C010020800100208101002051010020F3
:100BF000EC37010010B504468378022B1DD0032B7F
:100C000024D0012B0CD07F2380F80034037880F8A7
:100C10000134312380F802340323A0F80A380AE0B3
:100C2000FBF7D4FE682384F80034637884F8013439
:100C30000223A4F80A38012010BDFBF7C7FE682381
:100C400084F800340223A4F80A38F4E7FBF7BEFE68
:100C5000682384F80034637884F801340223A4F80C
:100C60000A38E8E710B504468378022B1DD0032B21
:100C700027D0012B0CD07F2380F80034037880F834
:100C80000134312380F802340323A0F80A380AE043
:100C9000FBF790FE682384F80034637884F801340D
:100CA0000223A4F80A38012010BDFBF783FE682355
:100CB00084F80034637884F801340223A4F80A38F5
:100CC000F1E7FBF777FE682384F80034637884F853
:100CD00001340223A4F80A38E5E710B50446837806
:100CE000022B1DD0032B27D0012B0CD07F2380F8A3
:100CF0000034037880F80134312380F80234032370
:100D0000A0F80A380AE0FBF749FE682384F80034AB
:100D1000637884F801340223A4F80A38012010BD56
:100D2000FBF73CFE682384F80034637884F80134D0
:100D30000223A4F80A38F1E7FBF730FE682384F8B1
:100D40000034637884F801340223A4F80A38E5E714
:100D500010B504468378022B1DD0032B27D0012B1E
:100D60000CD07F2380F80034037880F801343123DD
:100D700080F802340323A0F80A380AE0FBF730FEBB
:100D8000682384F80034637884F801340223A4F8DB
:100D90000A38012010BDFBF723FE682384F80034D5
:100DA000637884F801340223A4F80A38F1E7FBF7EA
:100DB00017FE682384F80034637884F80134022332
:100DC000A4F80A38E5E700000122024B1A7000205F
:100DD000704700BF640400200322024B1A700020F9
:100DE000704700BF6404002008B50222024B1A704D
:100DF000FCF786F8002008BD640400202DE9F043CC
:100E000000242C4B1C80002944D00B46046804F1BC
:100E1000604101F50041B1F5584F3ED2416821448F
:100E200005892944244DA9423AD80746013BDBB243
:100E300003EB430300EB830C4FF000081D4EAE465E
:100E400013E0338819443180BC4520D0EC6804F1AC
:100E5000604303F50043B3F5584F24D20C372B6998
:100E60002344A98A0B44734520D83D46398900297B
:100E7000E7D0434614F8019B3188D01800F8019060
:100E80000133DBB2298998B28842F3D3D9E7032032
:100E9000BDE8F0830320BDE8F0830120BDE8F083C6
:100EA0000120BDE8F0830120BDE8F0830120BDE80A
:100EB000F08300BF14040020FF570020002070477B
:100EC00082B09DF8070002B0704708B5028900683B
:100ED00002F0CEFA022008BD08B5024802F0E4F89C
:100EE00008BD00BF4404002010B584B0044601A82A
:100EF00002F058FAC32384F80034012084F8010476
:100F0000BDF804301A0A84F8022484F80334BDF8CA
:100F100006301A0A84F8042484F80534BDF8083031
:100F20001A0A84F8062484F80734BDF80A301A0A2D
:100F300084F8082484F80934BDF80C301A0A84F8BF
:100F40000A2484F80B340C23A4F80A3804B010BD2A
:100F500010B50446084802F075FAC32384F800343B
:100F6000637884F801340223A4F80A38034802F0B5
:100F700093F8002010BD00BF44040020D90E0100EA
:100F8000B0F80838022B0DD07F2380F800340378A6
:100F900080F80134132380F802340323A0F80A38C0
:100FA0000120704710B584B0044601A802F0ECF9A6
:100FB000C32384F80034022384F80134BDF80430DC
:100FC0001A0A84F8022484F80334BDF806301A0A99
:100FD00084F8042484F80534BDF808301A0A84F82B
:100FE000062484F80734BDF80A301A0A84F8082465
:100FF00084F80934BDF80C301A0A84F80A2484F8FD
:101000000B340C23A4F80A38012004B010BD0000F2
:1010100010B504461B48A278E37843EA0223038014
:101020002279637943EA02234380A279E37943EA90
:1010300002238380227A637A43EA0223C380A27A5E
:10104000E37A43EA0223038102F0BAF968B97F2305
:1010500084F80034237884F80134312384F802348E
:101060000323A4F80A38012010BDC32384F80034F8
:10107000637884F801340223A4F80A38024802F0A5
:101080000BF8F0E744040020D90E010008B5B0F8D1
:101090000828012A60D9437836490B70022B27D0E3
:1010A00012D9032B36D0042B49D10C2A44D07F23EC
:1010B00080F80034037880F80134132380F8023478
:1010C0000323A0F80A3853E0012B38D1022A0CD0B0
:1010D0007F2380F80034037880F80134132380F8EC
:1010E00002340323A0F80A3842E0FFF7FDFE3FE098
:1010F000022A0CD07F2380F80034037880F8013472
:10110000132380F802340323A0F80A3830E0FFF7F5
:101110001FFF2DE0022A0CD07F2380F800340378D3
:1011200080F80134132380F802340323A0F80A382E
:101130001EE0FFF725FF1BE0FFF76AFF18E07F23A3
:1011400080F80034037880F80134122380F80234E8
:101150000323A0F80A380BE07F2380F800340378DB
:1011600080F80134132380F802340323A0F80A38EE
:10117000012008BD40040020B0F80838042B0DD031
:101180007F2380F80034037880F80134132380F83B
:1011900002340323A0F80A380120704710B5044632
:1011A0004078A3781B0243EA0043E0781843FBF73A
:1011B00073FC68B17F2384F80034237884F8013409
:1011C000312384F802340323A4F80A38012010BD27
:1011D0000E4B93F83000FBF747FC01280DD07F231E
:1011E00084F80034237884F80134722384F80234BC
:1011F0000323A4F80A38012010BD542384F80034D6
:101200000123A4F80A38002010BD00BF7435010086
:10121000B0F80838032B0DD07F2380F80034037812
:1012200080F80134132380F802340323A0F80A382D
:101230000120704770B50C79A4B145780E683378F9
:10124000AB421DD0324600230133DBB2A34209D0AA
:1012500012F8081FA942F7D106EBC3035B68984751
:10126000002070BD7F2380F80034037880F80134BB
:10127000122380F802340323A0F80A38012070BD3D
:101280000023E9E70022014B1A7070474886FF1FD0
:10129000F8B5B0F80838012B62D90D793DB346781E
:1012A0000F683B78B34230D03A4600230133DBB2BB
:1012B000AB421CD012F80C4FB442F7D10E46054693
:1012C00003EB43039C002744BB680BB19847F0B184
:1012D00033681C446368ABB3B5F80818023989B2A7
:1012E000A81C984708BB6B7885F80034F8BD7F23AD
:1012F00080F80034852380F80134122380F802340A
:101300000323A0F80A380120F8BD0023D6E77F2385
:1013100085F80034852385F80134222385F80234CA
:101320000323A5F80A380120F8BD7F2285F80024A0
:10133000852285F8012485F802040323A5F80A38DC
:101340000120F8BD7F2385F80034852385F801341A
:10135000312385F802340323A5F80A380120F8BDAB
:101360007F2380F80034852380F80134132380F82C
:1013700002340323A0F80A380120F8BD0122024BF1
:101380001A700020704700BF4886FF1F0023034AE1
:101390001370034A9370D370138070474E0400207B
:1013A0005C040020B0F808C8BCF1030F40F21082C2
:1013B0002DE9F04F91B08378C57845EA0325ADF863
:1013C0003E50BDF83E309BB2B3F5724FC0F00E8276
:1013D000BDF83E309BB2BDF83E40A4B2B4F5734FA9
:1013E00027D2B3F5734F80F00E824678731EDBB2BE
:1013F000022B00F2DF818B460446022E00F0E380D0
:10140000032E00F0C381012E1AD0EAB96C2384F8B0
:101410000034637884F80134A37884F80234E378E4
:1014200084F803340423A4F80A38002011B0BDE87E
:10143000F08FBDF83E40A4B2B4F5744FD1D2D4E7DA
:10144000BCF1070F0DD813227F2384F800342C231E
:1014500084F8013484F802240323A4F80A38012014
:10146000E4E71CF0030F01D01322EDE70B681A46E6
:1014700004930023184619461E460127964606E0A7
:1014800095420DD00136F6B20633052E20D03EF837
:101490000320002AF4D10029F2D130463946EFE783
:1014A000042E98BF069613D8BCF1040348BF03333B
:1014B0009B1006EB46025200079204998A18059287
:1014C00092F8029059FA83F20A2A0ADD3122BBE728
:1014D0009BF80830042B01D93122B5E70696064661
:1014E000E2E71FFA89F913F0FF0357D0DBF8042075
:1014F000114606EB86025200D2B20192013B59FA24
:1015000083F30133029300234FF00408DFF828A38C
:101510000895099603911F4608F1030604EB08019C
:1015200014F8080091F801C05346A25D89784CEA8E
:101530000020DBF80C50A8470246002884D1A35DA8
:101540001F44BFB2019B4B44DBB203EB4303039840
:1015500000EB83029AF80A109172DAF8001040F852
:101560002310DAF804305360BAF80830138108F118
:1015700004085FFA88F809F101091FFA89F9029B4A
:101580009945C9D1089D099E3946059B9B880A4605
:101590001A44B2F5806F04DD312255E70023194665
:1015A000F3E70B4405998B8081F80290049B079A1E
:1015B0009D52069BB3423FF429AF9BF8083001339C
:1015C0008BF8083022E7BCF1060F01D813221CE784
:1015D000077907F00F093F09ACF1050C09EB070388
:1015E0009CFBF3F313F0FF0001D113220DE70A680F
:1015F0001146069200229646944616464FF0010880
:1016000006E055450FD00136F6B20632052E1CD045
:1016100031F802A0BAF1000FF3D1BCF1000FF0D104
:10162000B646C446EDE7042E98BF08960DD806EBE3
:1016300046025200099206998A180792927852FA45
:1016400083F30A2B0ADD3122DFE69BF80820042A07
:1016500001D93122D9E608967646E8E7DBF804306E
:1016600019461FFA82FA06EB86035B00DBB202938F
:10167000431E5AFA83F30133049309F1FF33DB006D
:1016800003937B1EDB00019300231A464FF00508ED
:1016900009F1FF33DBB205930A954D460B960E46D2
:1016A000914600230C930D930E9385B1184608F1D3
:1016B000FF322244059B03EB080CA444039912F863
:1016C000013F8B40184308396245F8D10C9005EB77
:1016D0000803DBB287B10D985A1E224407F1FF3C84
:1016E00053FA8CFCA444019912F8013F8B40184333
:1016F00008396245F8D10D90EB1998445FFA88F8E3
:1017000023798DF83830DBF81C300CA89847024656
:1017100000287FF47AAE0D9B99441FFA89F9029B49
:101720005344DBB203EB430306EB83019DF839001E
:1017300088720C9846F8230000234B600D9B0B81A8
:101740000AF1010A1FFA8AFA049B9A45A9D10A9D57
:101750000B9E4946079B9B881944B1F5806F01DDBC
:10176000312252E6494619440B460798838080F897
:1017700002A0069B09995D52089BB3423FF445AE17
:101780009BF8083001338BF808303EE6BDF83E1078
:1017900089B2DBF800502B888B4242D02A460123C5
:1017A000D08888423ED00133DBB20632052BF7D118
:1017B000312249E67F2380F800342C2380F801345D
:1017C000122380F802340323A0F80A3801202DE602
:1017D0007F2380F800342C2380F80134132380F811
:1017E00002340323A0F80A3801207047BDF83E30C8
:1017F0009BB2B3F5734F06D3BDF83E309BB2B3F541
:10180000744FFFF4F2AD7F2380F800342C2380F86E
:101810000134312380F802340323A0F80A38012070
:1018200004E6002303EB43035B00E9180022EA52BD
:101830008A708A80EAE500BF5004002070B40C4B27
:101840001B681C68238883420CD0A31D04F11E066C
:101850001C461D88854205D00633B342F8D10120CD
:1018600070BC7047A3880B8000201070F8E700BFA1
:101870005085FF1FF8B51546494B1B7863B3494B9C
:10188000D3F800E0484B9978DA7801EB810102EB5C
:10189000410202EB42029400DEF804C00CEB0407A4
:1018A000BA7A022A4AD0032A54D0012A3BD0012E08
:1018B0006AD0032E6AD13C4AD3780133DBB2D370AD
:1018C0001188388901441180364A1268126892786A
:1018D0009A424BD9022659E00C46FFF757FD314B8F
:1018E000186802681388A34256D00123D188A14208
:1018F00006D00133DBB20632052BF7D1012645E0D5
:10190000294A9370042B43D803EB4303026802EB8C
:1019100043039A78002A3DD09B882B800122204BDC
:101920001A70022632E01B88DEF8106003443A8900
:1019300079685CF80400B0470646B8E71A4B1B8884
:10194000DEF8146003443A8979685CF80400B04713
:101950000646ACE7144B1B88DEF8186003443A894E
:1019600079685CF80400B0470646A0E7FFF70EFD73
:101970000C4B1A680C4B9B78126803EB430302EB89
:1019800043039B882B8001E0FFF700FD3046F8BD44
:101990000126FBE70126F9E70023034A9370B3E72A
:1019A0004E0400205085FF1F5C04002010B400F19D
:1019B000604404F50044B4F5584F10D2114401447A
:1019C0000B4CA1420FD882B1002110F8014B5C549E
:1019D0000131C9B28CB2A242F7D8032000E0012045
:1019E0005DF8044B70470120FAE70320F8E700BFD9
:1019F000FF5700200120704708B5064B1A68064BB8
:101A00001B78126803EB430302EB8303986801F031
:101A10004BFB08BD60040020650400200122044B3C
:101A20001A700023034A1370034A1360704700BF03
:101A3000640400206504002060040020344B196019
:101A4000B0F80838022B0DD07F2380F800340378DB
:101A500080F80134132380F802340323A0F80A38F5
:101A60000120704770B50C79002C43D045780E6882
:101A70003378AB423CD0324600230133DBB2A34281
:101A800038D012F80C1FA942F7D1224A13709C4299
:101A900030D0054603EB43039C002644736803B132
:101AA00098471D4B187801F0EBFA1C4801F0F4FA46
:101AB000174B1B681B681C44A3685A889B881849ED
:101AC000A1FB0313DB08502185F80014697885F821
:101AD0000114110A85F8021485F803241A0A85F8FE
:101AE000042485F805340623A5F80A38002070BDC3
:101AF0000023CAE77F2380F80034037880F801349C
:101B0000122380F802340323A0F80A38012070BDA4
:101B1000600400206504002064040020F91901001D
:101B2000CDCCCCCCB0F80838022B0CD07F2380F879
:101B30000034102380F80134032380F80234A0F825
:101B40000A380120704770B50D7965B346780B6887
:101B50001A78B24235D000240134E4B2AC4222D02B
:101B600013F8102FB242F7D10D46064601F01EF8C9
:101B700024012B6823441A7B104224D09B680BB1AC
:101B8000984770B3512386F80034737886F801348F
:101B90000223A6F80A382B681C44606878B301F069
:101BA0007BFA002070BD7F2380F80034102380F87A
:101BB0000134122380F802340323A0F80A380120EC
:101BC00070BD0024D0E77F2386F80034102386F808
:101BD0000134332386F802340323A6F80A3801209F
:101BE00070BD7F2386F80034102386F80134222349
:101BF00086F802340323A6F80A38012070BD0020BD
:101C000070BD000008B50A4B18680A4B98420AD00C
:101C1000094B984209D0094B984214BF022000207A
:101C2000FAF7B0FE08BD0120FAE70320F8E700BF8D
:101C30006804002090D0030040420F0048E80100F3
:101C40000023044A1360044A1370044A1370044AC0
:101C500013607047680400206604002071040020AF
:101C60006C040020F0B5154B1E683479BCB1013C02
:101C7000E4B20134E40000230127DFF844E09C468D
:101C800002E00833A3420BD03268D5188178D25CC9
:101C90009142F6D16A68CEF800206746F1E7012745
:101CA0007F2380F80034037880F80134312380F8F2
:101CB00002340323A0F80A383846F0BD6C04002033
:101CC000680400208278037943EA0243C27843EA39
